:020000040000fa
:10000000f0ff03205d85010093630100e3670100b9
:1000100053730100df750100a77c010000000000a0
:100020000000000000000000000000009104020039
:10003000bb6e010000000000f1af010019f90100e2
:100040004754010047540100475401004754010040
:100050004754010047540100475401004754010030
:100060004754010047540100475401004754010020
:100070004754010047540100475401004754010010
:100080004754010047540100475401004754010000
:1000900047540100475401004754010047540100f0
:1000a00047540100475401004754010047540100e0
:1000b00047540100475401004754010047540100d0
:1000c00047540100475401004754010047540100c0
:1000d00047540100475401004754010047540100b0
:1000e00047540100475401000000000000000000d8
:1000f0000000000047540100a50c0100a50c010000
:10010000a50c0100a50c01004508010045080100ef
:10011000450801004508010047540100475401000b
:10012000475401004754010047540100475401005f
:10013000475401004754010047540100475401004f
:10014000475401004754010047540100475401003f
:10015000475401004754010047540100475401002f
:10016000475401004754010047540100475401001f
:10017000475401004754010047540100475401000f
:1001800047540100475401004754010047540100ff
:10019000f5ee0100475401004754010047540100a7
:1001a00047540100475401004754010047540100df
:1001b00047540100475401004754010047540100cf
:1001c00047540100475401004754010047540100bf
:1001d00047540100475401004754010047540100af
:1001e00047540100475401004754010069f80100d9
:1001f000475401004754010047540100475401008f
:10020000475401004754010047540100475401007e
:10021000475401004754010047540100475401006e
:10022000475401004754010047540100475401005e
:10023000475401004754010047540100475401004e
:10024000475401004754010047540100475401003e
:10025000475401004754010047540100475401002e
:0402600047540100fe
:020000040000fa
:10026400f8b500bff8bc08bc9e467047b9d601007b
:10027400f8b500bff8bc08bc9e46704795d601008f
:020000040000fa
:080284002cbc00000100000089
:020000040000fa
:10028c0055736167653a206d6163696e666f200d09
:10029c000a00000045783a206d6163696e666f2034
:1002ac000d0a0000496e746572666163653a20251b
:1002bc007320447269766572205374617469737427
:1002cc006963730d0a0000000d0a205265636569ad
:1002dc00766520537461746973746963730d0a00d5
:1002ec0009206e52784f6b5061636b6574733a20c2
:1002fc0025640d0a09206e527850656e644275664d
:10030c00666572733a2025640d0a09206e52785383
:10031c0063686564427566666572733a2025640d80
:10032c000a00000009206e52784572726f7250619b
:10033c00636b6574733a2025640d0a09206e52783c
:10034c00467261676d656e744572726f72733a2096
:10035c0025640d0a09206e5278427566664e6f74dc
:10036c00417661696c61626c653a2025640d0a0006
:10037c000d0a205472616e736d697420537461742c
:10038c006973746963730d0a0000000009206e54d0
:10039c00784f6b5061636b6574733a2025640d0a5a
:1003ac0009206e547850656e64427566666572738a
:1003bc003a2025640d0a09206e54784572726f72ca
:1003cc005061636b6574733a2025640d0a09206ec5
:1003dc005478517565756546756c6c3a2025640dbd
:1003ec000a0d0a00096e6f7420737570706f727449
:1003fc0065640d0a00000000496e746572666163e5
:10040c00653a2025732048617264776172652052c9
:10041c0065676973746572205374617475730d0a22
:10042c0000000000092025733a20307825780d0a49
:10043c000000000064697361626c65640000000078
:10044c0064697361626c6500656e61626c65640001
:10045c00656e61626c65000055736167653a2025b5
:10046c0073203c696e746572666163653e203c6ff7
:10047c006e2f6f66663e200d0a00000045783a200c
:10048c002573205049433332494e54206f6e200d52
:10049c000a000000556e6b6e6f776e20696e746586
:1004ac0072666163650d0a006f6e00006f66660010
:1004bc00556e6b6e6f776e206f7074696f6e0d0a70
:1004cc000000000025732025730d0a004661696c3d
:1004dc00656420746f2025732025730d0a000000bd
:1004ec00556e6b6e6f776e207365727669636520df
:1004fc0025730d0a000000006e6f6e650000000091
:10050c0074170000010000009012000002000000af
:10051c00b404000003000000b80400000300000055
:10052c00781700000400000055736167653a206479
:10053c006e7363203c64656c2f696e666f2f6f6ef3
:10054c002f6f66662f6c6f6f6b75703e200d0a00f7
:10055c0055736167653a202573203c6f6e2f6f666b
:10056c00663e203c696e746572666163653e203c34
:10057c007374726963742f707265663e2f3c636c82
:10058c006561723e200d0a0045783a202573206f74
:10059c006e20657468300d0a000000007374726977
:1005ac00637400007072656600000000636c656126
:1005bc007200000055736167653a20646e736320a6
:1005cc006c6f6f6b7570203c747970653e203c6865
:1005dc006f73744e616d653e200d0a0048656c703a
:1005ec003a203c686f73744e616d653e2855524cd1
:1005fc0029202d206c6f6f6b20757020666f722018
:10060c00686f73746e616d650d0a000048656c70df
:10061c003a203c747970653e203a2061206f72203c
:10062c004120666f72204950763420616464726593
:10063c007373206c6f6f6b75700d0a0048656c706e
:10064c003a203c747970653e203a206161616120ea
:10065c006f72204141414120666f722049507636bd
:10066c002061646472657373206c6f6f6b75700db1
:10067c000a00000048656c703a203c747970653e45
:10068c00203a20616e7920666f7220626f74682048
:10069c004950763420616e6420495076362061646e
:1006ac006472657373206c6f6f6b75700d0a00004c
:1006bc00646e7363206c6f6f6b75703a20636f6d33
:1006cc006d616e6420696e2070726f6772657373f2
:1006dc002e205265747279206c617465722e0d0a2d
:1006ec000000000041000000610000004141414158
:1006fc00000000006161616100000000414e590082
:10070c00616e7900646e7363206c6f6f6b75703af9
:10071c00205b25735d204c6f6f6b75702054797066
:10072c0065206e6f7420737570706f727465642eb3
:10073c000d0a0000646e7363206c6f6f6b75703afa
:10074c0020486f7374206e616d6520746f6f206c20
:10075c006f6e672e2052657472792e0d0a000000a0
:10076c00646e7363206c6f6f6b75703a2072657377
:10077c006f6c76696e6720686f73743a20257320ee
:10078c00666f7220747970653a2573200d0a00002b
:10079c0055736167653a20646e73632064656c20e1
:1007ac003c686f73744e616d653e7c616c6c200da2
:1007bc000a00000048656c703a203c686f73744ef8
:1007cc00616d653e2855524c29202d2052656d6f68
:1007dc0076652074686520656e7472792069662070
:1007ec00657869737473200d0a00000048656c709d
:1007fc003a20616c6c202d2052656d6f76652061fe
:10080c006c6c20746865207265736f6c76656420ff
:10081c00656e747279200d0a00000000616c6c002a
:10082c005b25735d206e6f742070617274206f662f
:10083c002074686520444e532043616368652065cd
:10084c006e747279200d0a00496e636f6d706c6561
:10085c00746520636f6d6d616e64200d0a0000007d
:10086c0055736167653a20646e736320696e666fb9
:10087c00200d0a0048656c703a20646973706c61d5
:10088c00792074686520444e532063616368652049
:10089c00656e7472792064657461696c73200d0add
:1008ac0000000000444e5320436c69656e7420694f
:1008bc007320646f776e210d0a000000444e5320a4
:1008cc00436c69656e74204946202d2053747269ff
:1008dc0063743a2025732c205072656665727265bc
:1008ec00643a2025730d0a00444e5320436c69650d
:1008fc006e74202d2074696d653a2025642c20704f
:10090c00656e64696e673a2025642c20637572727b
:10091c00656e743a2025642c20746f74616c3a20d7
:10092c0025640d0a00000000486f73746e616d65dc
:10093c00203d202573200d0a54696d656f75742058
:10094c003d202564200d0a0049507634203d257346
:10095c000d0a000049507636203d2025730d0a0003
:10096c002d2d2d2d2d2d2d2d2d2d2d2d2d2d2d2dab
:10097c002d2d2d2d2d2d2d2d2d2d2d2d2d2d2d2d9b
:10098c002d2d2d2d2d2d2d2d2d2d2d2d2d2d2d2d8b
:10099c002d2d2d2d0d0a00004e6f20444e5320435b
:1009ac006c69656e7420436163686520656e747252
:1009bc00696573200d0a0000496e76616c696420cc
:1009cc00496e70757420436f6d6d616e64203a5b77
:1009dc00202573205d200d0a0000000050696e6711
:1009ec003a20646f6e652e2053656e74202564204a
:1009fc0072657175657374732c20726563656976a5
:100a0c006564202564207265706c6965732e0d0a0f
:100a1c000000000050696e672055736167653a20cd
:100a2c0070696e67203c73746f703e2f3c6e616d05
:100a3c00652f616464726573733e203c6920696e36
:100a4c00746572666163653e203c6e206e50696e03
:100a5c0067733e203c74206d73506572696f643e01
:100a6c00203c732073697a653e0d0a0073746f70b5
:100a7c000000000050696e673a20636f6d6d616e07
:100a8c006420696e2070726f67726573732e2052ca
:100a9c0065747279206c617465722e0d0a00000009
:100aac0050696e673a20486f7374206e616d6520d3
:100abc00746f6f206c6f6e672e2052657472792e76
:100acc000d0a0000690000006e00000074000000b8
:100adc007300000050696e673a20446174612073a2
:100aec00697a6520746f6f206269672e204d61787a
:100afc003a2025642e2052657472790d0a0000008c
:100b0c0050696e673a20556e6b6e6f776e20706110
:100b1c0072616d657465720d0a00000050696e6734
:100b2c003a207265736f6c76696e6720686f7374a8
:100b3c003a2025730d0a0000556e6b6e6f776e2090
:100b4c006865617020747970652e205573653a2044
:100b5c005b312c2025645d0d0a0000004e6f20686f
:100b6c0065617020696e666f206578697374732097
:100b7c00666f7220747970653a202573210d0a0016
:100b8c004865617020747970653a2025732e204970
:100b9c006e697469616c2063726561746564206848
:100bac006561702073697a653a20256420427974f6
:100bbc0065730d0a00000000416c6c6f6361626c20
:100bcc006520626c6f636b20686561702073697a55
:100bdc00653a2025642042797465730d0a00000083
:100bec00416c6c20617661696c61626c6520686532
:100bfc0061702073697a653a2025642042797465a6
:100c0c00732c20686967682077617465726d6172f6
:100c1c006b3a2025640d0a004c6173742068656181
:100c2c0070206572726f723a20307825780d0a0048
:100c3c004e6f20547261636520696e666f20657813
:100c4c00697374732e0d0a00537461636b20757095
:100c5c00206661696c65640d0a0000005374616361
:100c6c006b207570207375636365656465640d0a2c
:100c7c000000000055736167653a20737461636b03
:100c8c00203c75702f646f776e3e203c70726573dc
:100c9c00657276653e0d0a0045783a20737461637f
:100cac006b20646f776e2070726573657276650d5c
:100cbc000a00000075700000537461636b20616c56
:100ccc007265616479207570210d0a005475726e1d
:100cdc0020537461636b20646f776e20616e6420a7
:100cec007468656e207570210d0a0000526573746e
:100cfc00617274696e672074686520737461636bcc
:100d0c00207769746820256420696e746572666149
:100d1c0063652873290d0a00646f776e000000006c
:100d2c00537461636b20646f776e3a2063616e6eef
:100d3c006f7420676574206120737461636b206825
:100d4c00616e646c650d0a00537461636b20646f93
:100d5c00776e207375636365656465640d0a0000c6
:100d6c0055736167653a206966203c696e746572db
:100d7c00666163653e203c646f776e2f75703e2014
:100d8c000d0a000045783a206966205049433332f9
:100d9c00494e5420646f776e200d0a00556e6b6eb1
:100dac006f776e20696e746572666163652073700f
:100dbc0065636966696564200d0a0000546869738f
:100dcc0020696e7465726661636520616c72656121
:100ddc0064792075700d0a004f7065726174696fcb
:100dec006e206661696c65642e204e6f20636f6e99
:100dfc0066696775726174696f6e0d0a0000000098
:100e0c0066756c6c000000005468697320696e7420
:100e1c0065726661636520616c72656164792064da
:100e2c006f776e0d0a00000057726f6e672070614d
:100e3c0072616d657465722073706563696669654e
:100e4c0064200d0a000000004f7065726174696fb8
:100e5c006e207375636365737366756c210d0a0080
:100e6c004f7065726174696f6e206661696c656440
:100e7c00210d0a0055736167653a207365746d61c5
:100e8c0063203c696e746572666163653e203c78d4
:100e9c003a783a783a783a783a783e200d0a000057
:100eac0045783a207365746d616320504943333241
:100ebc00494e542061613a62623a63633a64643a1f
:100ecc0065653a6666200d0a00000000617267765f
:100edc005b325d3a2025730d0a000000496e766185
:100eec006c6964204d4143206164647265737320a6
:100efc00737472696e67200d0a00000053657420cc
:100f0c004d41432061646472657373206661696c42
:100f1c0065640d0a000000005365742042494f536c
:100f2c00204e616d65204f4b0d0a000053657420f7
:100f3c0042494f53204e616d65206661696c656452
:100f4c000d0a000055736167653a20736574626918
:100f5c006f73203c696e746572666163653e203cfc
:100f6c00782e782e782e783e200d0a0045783a207f
:100f7c0073657462696f73205049433332494e5420
:100f8c00204d434850424f4152445f3239200d0aa4
:100f9c0000000000536574206761746577617920e7
:100fac0061646472657373204f4b0d0a000000007e
:100fbc00536574206761746577617920616464722c
:100fcc00657373206661696c65640d0a000000002e
:100fdc0055736167653a207365746777203c696e59
:100fec00746572666163653e203c697076342f3699
:100ffc0020616464726573733e203c76616c696435
:10100c0054696d653e200d0a0000000045783a20b9
:10101c007365746777205049433332494e542031fd
:10102c0039322e3136382e302e31200d0a00000088
:10103c00496e76616c696420495020616464726504
:10104c00737320737472696e67200d0a00000000c0
:10105c005365742069702061646472657373204fea
:10106c004b0d0a00536574206970206164647265cd
:10107c007373206661696c65640d0a005573616752
:10108c00653a207365746970203c696e746572668c
:10109c006163653e203c697076342f362061646450
:1010ac00726573733e203c697076346d61736b2f7f
:1010bc006970763620707265666978206c656e3e54
:1010cc000d0a000045783a20736574697020504908
:1010dc00433332494e54203139322e3136382e308a
:1010ec002e38203235352e3235352e3235352e30e0
:1010fc00200d0a004e6f207375636820696e74654d
:10110c0072666163652069732075700d0a000000ba
:10111c00416e2061646472657373207365727669c5
:10112c00636520697320616c7265616479207275e6
:10113c006e6e696e672e2053746f70204448435056
:10114c002c205a434c4c2c206574632e20666972fb
:10115c0073740d0a00000000496e76616c6964209e
:10116c004950206d61736b20737472696e67200d2a
:10117c000a00000073756363657373006661696cc4
:10118c006564000055736167653a20736574646e1d
:10119c007320312f32203c696e7465726661636511
:1011ac003e203c782e782e782e783e200d0a0000ba
:1011bc0045783a20736574646e73203120657468c9
:1011cc0030203235352e3235352e3235352e302015
:1011dc000d0a0000556e6b6e6f776e20444e5320d7
:1011ec00696e6465780d0a0053657420444e532073
:1011fc00256420616464726573732025730d0a0085
:10120c006e6f7420676976656e0000004e6f6e65b8
:10121c00000000006661696c000000005573616796
:10122c00653a202573203c696e746572666163654e
:10123c003e203c6f6e2f6f66662f72656e65772f42
:10124c00726571756573742f696e666f3e200d0a39
:10125c000000000072656e657700000072657175a4
:10126c006573740052657175657374206e65656481
:10127c007320616e20495020616464726573730d34
:10128c000a000000696e666f00000000444843507d
:10129c00207374617475733a2025642028202564aa
:1012ac00203d3d20426f756e64292c2074696d655c
:1012bc003a2025640d0a000044484350206c6561b7
:1012cc0073652073746172743a2025642c206475e4
:1012dc00726174696f6e3a202564730d0a00000008
:1012ec00444843502072656e65772074696d653a89
:1012fc002025642c20726562696e642074696d65aa
:10130c003a2025640d0a000044484350206164646f
:10131c00726573733a2025730d0a000044484350dc
:10132c00207365727665723a2025730d0a000000f1
:10133c004448435020626f6f74206e616d653a2093
:10134c0025730d0a00000000444843502054696d79
:10135c006520736572766572733a2025642c20259e
:10136c00730d0a0044484350204e5450207365724c
:10137c00766572733a2025642c2025730d0a0000c3
:10138c00444843503a206661696c656420746f2050
:10139c0067657420696e666f0d0a00002573202541
:1013ac00732025730d0a0000737563636573736690
:1013bc00756c00006661696c65642100736574006e
:1013cc006765740044656661756c7420696e74653c
:1013dc007266616365207365742025730d0a0000c5
:1013ec0044656661756c7420696e746572666163c0
:1013fc00652069733a2025730d0a000055736167e7
:10140c00653a206465666e6574207365742f676534
:10141c0074203c696e746572666163653e0d0a00ea
:10142c0045783a206465666e657420736574206532
:10143c007468300d0a00000055500000444f574ea0
:10144c000000000052656164790000004e6f74204a
:10145c00526561647900000055736167653a206ece
:10146c006574696e666f0d0a0000000045783a20bd
:10147c006e6574696e666f0d0a0000002d2d2d2da2
:10148c002d2d2d2d2d2d20496e7465726661636591
:10149c00203c25732f25733e202d2d2d2d2d2d2dec
:1014ac002d2d2d200d0a0000496e74657266616346
:1014bc006520697320646f776e0d0a00486f737432
:1014cc00204e616d653a202573202d204e424e53df
:1014dc002064697361626c6564200d0a0000000071
:1014ec004950763420416464726573733a202573d5
:1014fc000d0a00004d61736b3a2025730d0a000034
:10150c00476174657761793a2025730d0a000000f4
:10151c00444e53313a2025730d0a0000444e533289
:10152c003a2025730d0a00004d414320416464723a
:10153c006573733a2025730d0a00000064686370ac
:10154c002069732025730d0a000000004c696e6b36
:10155c002069732025730d0a000000005374617418
:10156c0075733a2025730d0a0000000064656661ee
:10157c00756c74204950206164647265737300004b
:10158c002573206973204f4e0d0a00006468637048
:10159c000000000050696e673a2077726f6e67200a
:1015ac007265706c792072656365697665642e204e
:1015bc004d61736b3a2030782532780d0a000000ab
:1015cc0050696e673a207265706c795b25645d209a
:1015dc0066726f6d2025733a2074696d65203d200d
:1015ec0025646d730d0a000050696e673a20444ef5
:1015fc0053206661696c75726520666f7220257365
:10160c000d0a0000444e53204c6f6f6b75703a20de
:10161c00444e53206661696c75726520666f72204a
:10162c0025732c206572723a2025640d0a00000087
:10163c00444e53204c6f6f6b75703a207265717508
:10164c006573742074696d656f75742e0d0a0000d6
:10165c004c6f6f6b757020416e737765723a0d0a23
:10166c002d2d2d2d2d2d2d2d2d2d2d2d2d2d2d2d9e
:10167c002d2d2d2d2d2d0d0a000000004e6f204c10
:10168c006f6f6b757020656e74727920666f722047
:10169c005b25735d0d0a00005b25735d20412049bd
:1016ac005076342041646472657373203a2025644b
:1016bc002e25642e25642e25640d0a005b25735d92
:1016cc002041414141204950763620416464726585
:1016dc007373203a25730d0a000000003a207374ce
:1016ec0061636b20636f6d6d616e6473000000004d
:1016fc0074637069700000004661696c65642074e5
:10170c006f206372656174652054435049502043c7
:10171c006f6d6d616e64730d0a0000005443504987
:10172c005020636f6d6d616e6473207461736b20f8
:10173c00726567697374726174696f6e2066616932
:10174c006c65640d0a000000696e7465726e616ce4
:10175c0000000000706f6f6c00000000657874650d
:10176c00726e616c0000000064656c006c6f6f6bd6
:10177c00757000006e6574696e666f003a2047657f
:10178c0074206e6574776f726b20696e666f726d04
:10179c006174696f6e0000006465666e65740000ac
:1017ac003a205365742f4765742064656661756cc7
:1017bc007420696e74657266616365003a204448f2
:1017cc00435020636c69656e7420636f6d6d616e40
:1017dc006473000064686370730000003a205475f1
:1017ec00726e204448435020736572766572206f88
:1017fc006e2f6f66660000007a636c6c0000000050
:10180c003a205475726e205a434c4c206f6e2f6fd9
:10181c0066660000736574646e7300003a2053654d
:10182c007420444e5320616464726573730000002d
:10183c0073657469700000003a2053657420495038
:10184c00206164647265737320616e64206d6173d2
:10185c006b00000073657467770000003a205365d5
:10186c007420476174657761792061646472657373
:10187c007300000073657462696f73003a205365de
:10188c007420686f73742773204e657442494f53ec
:10189c00206e616d650000007365746d61630000fe
:1018ac003a20536574204d41432061646472657322
:1018bc0073000000696600003a204272696e67206e
:1018cc00616e20696e746572666163652075702f38
:1018dc00646f776e00000000737461636b0000002e
:1018ec003a20537461636b207475726e206f6e2f87
:1018fc006f66660068656170696e666f0000000057
:10190c003a20436865636b2068656170207374616d
:10191c007475730070696e67000000003a2050699e
:10192c006e6720616e204950206164647265737328
:10193c0000000000646e7363000000003a20444e07
:10194c005320636c69656e7420636f6d6d616e649a
:10195c00730000006d6163696e666f003a20436826
:10196c0065636b204d4143207374617469737469b2
:04197c006373000091
:020000040000fa
:101980002de9f04f91b00f210a201cf0effa0390df
:1019900010f0010f40f02b85039b13f0020f40f075
:1019a0004a8511b0bde8f08fd9f8187007f110031f
:1019b0000793fb680d933b690e9300228df83c2042
:1019c00006238df83d302b0a43ea0523adf83e305f
:1019d0000c210da818f072fcc3439bb2b9f8222069
:1019e00012f0040f33d02a464146484617f038fa21
:1019f0000490049b002b40f06386404618f0c2ff21
:101a000098f80cb04fea1b1b4fea8b030693d9f8ea
:101a10001cb0bbf80220002a00f05586fe89bb8965
:101a20001e44bbf800301e445640b6b2cc4bd3f82f
:101a300000c0bcf1000f00f04986d9f828e0c94b7e
:101a40001b68059300239a46194610460fe01a4674
:101a50002946404618f032fc0490cae7b4f86a20e0
:101a600082422fd001331bb2194663452fd2059a0b
:101a700052f82140002cf5d094f86e200b2af1d0ba
:101a800094f86f100129edd8216c09b18e45e9d188
:101a9000002ae3d0b4f86a20b242e3d1dbf80010a8
:101aa000a26d9142ded1a16bfa689142dad1012197
:101ab00084f86f10c4f840e0079a20461cf02dfe11
:101ac000a24621e0baf1000f08bfa246cae7baf168
:101ad000000f7fd0fb68caf8383001218af86f10f8
:101ae000caf840e0079a50461cf017feaaf86a6050
:101af000bbf80030aaf85830bbf80230aaf85a30c8
:101b0000daf80030caf81030d9f810209389069915
:101b10005b1a938198f80d40d8f80870d8f80460e3
:101b20009af8373013f0400f58d19af86d306ff3b0
:101b300000038af86d309af86e30002b69d0012bc3
:101b400000f0b6801435069aa5eb020b1ffa8bfb4a
:101b5000abf1140292b2069214f0010207921abf7e
:101b6000abf1130b1ffa8bf2069a059214f0020fd9
:101b700003d0059a013292b20592daf81c50daf8d5
:101b800020209542c0f0e580daf81810daf8140049
:101b9000091aa5eb020ba1eb0b0b1ffa8bfbdaf872
:101ba0005020b51a059a002a00f0f080bbf1000f12
:101bb00000f0e280002dc0f2d9805d45c0f0eb80de
:101bc000059aabeb0202ab4500f3e580954240f38a
:101bd000e280d1e06ff00e0100f005bc00238af82e
:101be00071309af8363013f0020f9ed11ef0def9f4
:101bf0008346baf8683005931ef000fa059b00fb97
:101c000003f0594ba3fb00300beb9010caf82400f3
:101c10008be714f0040f35d114f0100f37d114f006
:101c2000020f40d00136caf85060404614f054fb11
:101c3000aaf8620050461cf00df80122122150460d
:101c400005f022fa02238af86e3000201ff026fced
:101c5000daf87450daf87860baf872400146002079
:101c60001ff04bfd049b14ea030200f03285002da7
:101c700000f031853346d9f82810baf93400a84766
:101c80000221b0e3002150460ef09afedde7caf8cb
:101c90004c7000220421504605f0f6f90021504610
:101ca0000ef08efed1e7002150460ef089fecce703
:101cb00014f0040fc9d114f0100f00f00e85daf8fb
:101cc0004c50af422ad114f0020fbed00136caf8f0
:101cd0005060b8f80e30aaf86630aaf85c3040467a
:101ce00014f0fafaaaf8620050461bf0b3ff012282
:101cf0001021504605f0c8f903238af86e309af88f
:101d0000373013f0400f13d19af836306ff3410398
:101d10008af836304ff48073049396e7caf84c7013
:101d200001220421504605f0aff9caf84c508ce767
:101d30001ef03cf90546baf868401ef05ff900fb5a
:101d400004f3094aa2fb032305eb9313caf82430da
:101d5000dae7a2eb050b0bf1ff3b1ffa8bfb1ee74b
:101d600098e5002094e50020d34d621005990a46bd
:101d7000691800293ff725af14f0040f7ff465af11
:101d800001221021504605f07ff95ee71db1002dbc
:101d9000f2db5d45f0da14f0060f11d114f0100fec
:101da0003ff453af023b072b00f2fe80dfe813f055
:101db00019002400240024002400fc002400f90160
:101dc00014f0040f08d09af8373043f002038af871
:101dd00037304ff400630493002150460ef0f0fdbd
:101de00033e7daf84c3008939f4220d103238af876
:101df0006e304ff480730493daf808c0daf81030cc
:101e0000bceb03001ed4daf84c107a1a121a002a1e
:101e100028ddbaf86c0000f40170042801d1012a11
:101e200017d000221021504605f02ef90de7caf810
:101e30004c7001220421504605f026f9089bcaf88f
:101e40004c3002e7daf80410daf80020891a084466
:101e5000d9e70131caf84c109af86d2042f002021d
:101e60008af86d20daf84c200992daf80c10089103
:101e7000a3eb010e8b422fd2daf80400daf800103f
:101e8000411ab81a70440844002838dddaf80420f2
:101e90000a92daf80010521a0b9290422cd89af853
:101ea0006c1001f0ef016ff345118af86c109af88d
:101eb00036106ff345118af83610089a0244caf8b2
:101ec0000c200b990b449342c0f0ff800a9b9a426e
:101ed000c0f0558400f04fbc0999781a704400286e
:101ee0000adddaf804100a460a91daf80010521aec
:101ef0000b92904240f22084089a93422cd09af898
:101f00006c1011f0100f21d011f0200f18d0099a89
:101f1000a2eb0e01caf84c10089a934207d2daf8e5
:101f20000430daf800001b1acb1acaf84c30089bb0
:101f3000caf810309af8363043f080038af8363009
:101f40009af86c3043f020038af86c309af86c30c1
:101f500043f010038af86c30daf80c309c4500f03e
:101f6000bc80b8f80e30baf866209a4238bfaaf89a
:101f70006630daf84c20b8f80e303b449b1a9bb21e
:101f8000baf85c1031b92bb19af8361041f0400123
:101f90008af83610aaf85c309af86e30042b00f0fc
:101fa000d780062b00f0f58014f0200f7ff44daea3
:101fb0009af86e20a2f10803dbb2012b7ff645ae42
:101fc000062a3ff442ae069a002a3dd0002d40f387
:101fd000f380069b2b445b4504ddabeb050b1ffa3e
:101fe0008bf3069398f80c301b0908eb83030c93d2
:101ff000daf81c10daf81830069a2a440a44934298
:1020000080f069815a1a0132521b00f156811ffa81
:1020100082f80124009443460ca80246294448460d
:1020200017f0fefc8346069aa2eb080300949bb2cd
:102030000caadaf81410484617f0f2fc584480b2a3
:10204000069b834200f05081059bcbb19af86e301d
:10205000033bdbb2022b84bfdaf81c30caf8203015
:102060009af8363013f0100f40f06d819af8363040
:1020700043f010038af8363013f0080f00f069813e
:10208000079b002b3ff4e1addaf850300133059a9d
:10209000324493427ff4d9adcaf85030049b43f4e4
:1020a000806293b204939af8373043f004038af8bd
:1020b00037309af86e30023b032b00f27881dfe86c
:1020c00013f05d0166016f018601d31a09990b4473
:1020d000caf84c30caf810204ae39af8373013f0a7
:1020e000010f1dd113f0400f06d19af836306ff36f
:1020f00041038af8363034e71df058ff0890baf8eb
:10210000683009931df07aff099b00fb03f34ff43d
:102110007a72b3fbf2f3089a1344caf82430e4e766
:10212000daf84c309f427ff41caf9af86c3013f011
:10213000040f3ff416af9af836306ff341038af874
:1021400036309af837306ff300038af8373008e7f3
:10215000974204d014f0200f3ff435af75e59af89c
:102160006c3013f0040ff5d01df020ff08901df027
:1021700045ff41f2883303fb00f34ff47a72b3fb5f
:10218000f2f3089a1344caf8303005238af86e3007
:10219000e0e797427ff459ad002150460ef010fc65
:1021a00053e5daf84c3001339f427ff44ead002105
:1021b00050460ef005fc48e598f80c301b09c5ebbd
:1021c000830343440c932a4493b29b4528bf9b4608
:1021d000daf81c10daf8183001eb0b0293425cd2eb
:1021e0005b1a03f101081ffa88f5012400942b46bd
:1021f0000caa484617f014fc0690abeb05030094bc
:102200009bb20caadaf81410484617f009fc069b9a
:10221000034498b2abeb0803daf814201344584592
:102220007ff412afdaf850105944caf85010caf8c7
:102230001c309af86e20033ad2b2022a04d8049acb
:1022400042f4007292b20492daf85420b2f1ff3fe5
:102250003ff4faaea2eb0b0bcaf854b0baf8602008
:1022600012eb0b0224d4bbf1000f3ff7edae11448b
:10227000caf850101344caf81c30daf818209342f8
:1022800006d9daf81410521ad2431344caf81c3093
:102290004ff0ff33caf85430d6e6012300935b4673
:1022a0000caa484617f0bcfbdaf81c305b44b6e7d2
:1022b0004ff0ff33caf85430c6e6681edaf814202f
:1022c0009b1ac01a01230093069b0caa014448469e
:1022d00017f0a6fbb4e601230093069b0caa294441
:1022e000484617f09dfbabe6daf85430b3f1ff3ff8
:1022f00013d09d4217d2069a5119baf86020d0180f
:10230000814204d88b4202d8431b9bb20693069ba2
:10231000aaf86030caf8545096e6caf85450069ba2
:10232000aaf8603090e6baf860201a44069841197d
:1023300091427ff689ae95423ff686aeeb1a18447d
:10234000aaf8600080e601221021504604f09cfead
:1023500096e6dbb243f008038af836301df026fe1d
:1023600004461df04bfe642303fb00f34ff47a7226
:10237000b3fbf2f31c44caf82c4081e609238af827
:102380006e3001221121504604f07efe5de40823e8
:102390008af86e309af86d3013f0010f07d054e4cc
:1023a000daf84c309f4208d006238af86e300122ba
:1023b0001021504604f068fe47e4002210215046e8
:1023c00004f062fe002150460ef0fafa3de40022cd
:1023d0001021504604f058fe002150460ef0f0fa4d
:1023e00033e46ff00d010a2248461bf0d3fa0a20ad
:1023f0001df0e2f9814600283ff4ceaab9f820503a
:10240000132deed9d9f81c8098f80c301b09042b39
:102410000bd9b5eb830f0bdbb9f8223013f4007f37
:102420003ff4c2aa6ff00e01dde76ff00d01dae7ad
:102430006ff00d01d7e7bd4b1b68002b3ff4b1aa2d
:1024400000252b46dff8e892dff8e8a2dff8dc820f
:10245000dee01df0abfda36ac01a0028a8bf10265d
:10246000ede01df0a3fde36ac01a0028c0f2ed8084
:1024700094f86e30052b00f09981102687f0010248
:102480003146204604f000fee7e01df08ffd236b8f
:10249000c01a0028c0f2de8001221421204604f078
:1024a000f3fd002120460ef08bfaa9e094f8366087
:1024b00006f001060121204614f000fc94f83630a5
:1024c00043f0010384f836304ff480520021204657
:1024d00019f008fe002e40f0938094f836306ff328
:1024e000000384f836300a2384f86e3088e01df04b
:1024f0005dfd636ac01a0028c0f2828094f86e10f5
:102500004b1e082b7ad8dfe803f005425661796943
:102510007979710094f87030032b28d802210026b5
:1025200094f87030013384f87030a36c5b00a364be
:102530002069e268831a9bb2904204d260682768df
:10254000c01b03449bb2e06cc01ae064b4f85c00aa
:102550000344a4f85c3022610022204604f094fd7c
:10256000002e4dd0002120460ef02afa48e0042328
:1025700084f870301df042fd4ff47a7303fb00f3d2
:10258000aafb03239b091b01a3640221c7e794f85c
:102590007030022b40f2c08094f8366006f00103e0
:1025a0001e46002b18bf1421002fb9d1012220464e
:1025b00004f06afdd4e794f87030042b40f2ae804a
:1025c000042384f86e3011210026ede794f8703072
:1025d000042b40f2a58014210126e5e794f8703021
:1025e000042b40f29f8014210126dde794f870301f
:1025f000042b40f2998014210126d5e7002e5cd1ee
:1026000001352db22b46d8f800209542bff4c9a958
:10261000d9f8002052f82340002cf1d094f86e3005
:102620000b2bedd094f8363013f0c0061dbf1f46bb
:10263000df091026002713f0040f7ff40aaf94f887
:10264000363013f0080f7ff40caf94f86e30052b82
:102650003ff41baf002e7ff411af94f8363013f027
:10266000020f7ff444af94f8373013f0400fc7d017
:1026700094f86e30032bc3d11df098fc636ac01a26
:102680000028bddb94f8712094f87c309a423ff426
:102690000daf02221021204604f0f6fc1df086fc4e
:1026a0000746b4f868601df0a9fc00fb06f0aafb21
:1026b000003007eb90106062a2e73146002673e716
:1026c0006ff009018fe66ff00e018ce66ff00e01de
:1026d00089e6022187e6022185e614f0020f3ff425
:1026e000b4aa0136caf85060b8f80e30aaf86630bd
:1026f000aaf85c30404613f0effdaaf8620050469d
:102700001bf0a8fa01221221504604f0bdfc02235e
:102710008af86e30fff799ba122100e71021fee621
:102720001121fce61021fae61121f8e698e50020d7
:1027300094e50020d34d62109af86c1001f0ef017f
:102740006ff345118af86c109af836106ff3451143
:102750008af83610089a0244caf80c209342bff453
:10276000b5abd31a09990b44caf84c30caf81020fb
:102770000a9b93420cd80b9bd21acaf80c20daf8a9
:1027800010300a9a9a4203d80b9a9b1acaf8103052
:102790009af86e30032b02d0082b7ff4ddab049b3c
:1027a00043f0040293b20493fff7d6bb1df0fefb87
:1027b000236bc01a0028bff66fae10265ee600bf7e
:020000040000fa
:1027c0002de9f04f2ded028b9bb00f2120201bf047
:1027d000cdfb002800f08886824b1b68002b40f35d
:1027e0008386814c0026814fdff810829fed808a1e
:1027f00008f5ee630593a3e3d4f8c4305d6894f85c
:10280000d12032b3227c012a45d0022a65d1b4f905
:102810003830b3f1ff3f27d00023764a4ff40071e0
:10282000b4f938001af01afdd4f8bc200221b4f92a
:10283000380011f010f938b9d4f8c4301b681b689f
:1028400008f5d861284698470621204619f07cfaf9
:102850006fe31b681b6808f5cf6128469847012184
:10286000204619f071fa64e304f18002618a0120c4
:1028700014f0ccfb2087b0f1ff3fcdd1d4f8c430a9
:102880001b681b6808f29c61284698470121204676
:1028900019f05afa4de304f18002618a01201ff019
:1028a000befba087b0f1ff3f0ad00023524a4ff48d
:1028b00080711af04afc0321204619f045fa38e3ea
:1028c000d4f8c4301b681b6808f5dd6128469847ba
:1028d0000121204619f038fa2be31b681b6808f227
:1028e0000c71284698470121204619f02dfa20e363
:1028f000d4f8c430d3f804b03b4be31adb1003eb3d
:10290000c30203eb4203c3eb432303eb8343c3f153
:10291000000a86e0d4f8c4301b681b6808f22471f2
:10292000584698470421204619f00efa01e3b4f9fd
:102930003c001df0cafefce20133c4f89430284686
:1029400008f01cf902460b46d4e9080107f0caff5b
:10295000c4e90801b9f1000f1adba36ae26a511c4d
:102960008b4230d0934222dc616b01f10101616343
:102970002bd022e0d4f8c4301b685b6808f24471a5
:1029800058469847236b013ba26a1344236383e0b4
:10299000c9f10003a3621df009fbc4f88c000023f9
:1029a00084f8cc300421204619f0cef9d5e75b1a23
:1029b000226b13442363a36ae3620c3dadb285b37b
:1029c0004ff0340925e0934206d1d4f8c4301b6897
:1029d0001b68059958469847a36ae26a9342ecdd62
:1029e000eae700bff8e50020b0db002068e2002045
:1029f00000007a447716020061160200444c000081
:102a00004a463946b4f93c0012f02cfa343dadb2d6
:102a10003db1332df4d82a463946b4f93c0012f0c2
:102a200021fab4f93c001df085fa05460b2840f266
:102a300082800c223946b4f93c0012f013fa0c28bb
:102a40007ff468af3b684fea136949ea03691a02e9
:102a500002f47f0249ea02091b0a03f47f4349eab0
:102a60000309c4f82890d4f89430002b7ff464afa5
:102a7000b9f1000ffff65baf0123c4f89430d4f82e
:102a8000c4301b685b68524608f5f56158469847a4
:102a9000a26a002a7ff46eafa36ae36206a9b4f9c2
:102aa0003c0018f03bfab4f93c001ef0efff1ef0ba
:102ab000bcf8079dd4f8c4301b68628a0292020eeb
:102ac0000192c0f307420092d3f80490c0f30723a9
:102ad000c2b208f25c515846c847d4f8c4301b68eb
:102ae000bdf85c2002922a0e0192c5f307420092c3
:102af000d3f80490c5f30723eab208f5b26158464b
:102b0000c8476564bdf85c30a4f864301df04efa27
:102b1000c4f88800c4f8a800a36ac4f89c30d4f8ac
:102b20009430c4f89830236bc4f8a030b4f93c005a
:102b30001df0cbfd75e7d4f894304bb994f8cf3045
:102b4000012b40f0f6810421204619f0fdf8f0e158
:102b50001df02cfad4f8a830c31a22689342edd99c
:102b6000d4f89420d4f898309a4213d1d4f8c430d1
:102b70001b681b6808f5f261584698471df016fa65
:102b8000c4f88c00002384f8cc300421204619f0ce
:102b9000dbf8d3e7002120460af044f8cee7b4f989
:102ba0003c001df0c7f938b994f8cf304bb109217a
:102bb000204619f0c9f8bce1b4f93c001df085fdd0
:102bc000b7e10521204619f0bff8b2e194f8cd3005
:102bd000002b00f0b580b4f93c001df0abf90028e3
:102be00040f0b68094f8cc305a1c84f8cc200a2be4
:102bf00000f2b3808021b4f93c001ff03efa0028b7
:102c000000f09781e36a5b421a0e42ea03621902fe
:102c100001f47f010a431b0a03f47f4313433b6023
:102c200000257d60bd608023fb603d61d4e9080123
:102c30001af0b0ff020e42ea0062030203f47f03bf
:102c40001a43030a03f47f4313437b611df0d6f953
:102c5000d4f88c10d4f88830c91ab1fbf0f31a0eee
:102c600042ea03624fea032c0cf47f0c42ea0c02a6
:102c70004fea132c0cf47f4c42ea0c02ba6100fbc1
:102c8000131307ee103ab8ee477a27ee087a07eeec
:102c9000900af8ee676ac7ee267a67ee887afcee4d
:102ca000e77a17ee903a1a0e42ea0362190201f42b
:102cb0007f010a431b0a03f47f431343fb61236b29
:102cc0001a0e42ea0362190201f47f010a431b0a49
:102cd00003f47f4313433b62636b1a0e42ea0362c1
:102ce000190201f47f010a431b0a03f47f431343d3
:102cf0007b62e36a1a0e42ea0362190201f47f0161
:102d00000a431b0a03f47f431343bb62fd623d6326
:102d100034223946b4f93c0019f007fe4ff04c0953
:102d20004a46294606a81ef029ff4a4606a9b4f9d4
:102d30003c0019f0fafdb4f93c000bf0bff8f8e0e4
:102d40000221204609f06eff012384f8cd3042e7ce
:102d5000b4f93c001df0b9fcebe00921204618f065
:102d6000f3ffe6e094f8cf30012b24d0b4f938001b
:102d70001df0e4f9002800f0dc8006a9b4f9380061
:102d800016f0e4fc04f1400c06ad0fcdace80f00ea
:102d90000fcdace80f000fcdace80f0095e80300b5
:102da0008ce803000721204618f0ceffb4f9380064
:102db0001cf077febde00921204618f0c5ffb8e001
:102dc000d4f8c430d3f80490b4f938001ef0b3fd41
:102dd0000546002866d0a36a002b4cd1c74be31ae6
:102de000db1003ebc30203eb4203c3eb432303eb10
:102df0008343d4f8c4201268d2f804a05a4208f5dc
:102e0000f5614846d0471df0d1f8c4f88800c4f8f1
:102e1000a800a36ac4f89c30b4f938001ef00efe76
:102e20001df003ffd4f8c4301b68628a0292020ec0
:102e30000192c0f307420092d3f804a0c0f3072325
:102e4000c2b208f25c514846d047d4f8c4301b687f
:102e5000b4f86420029294f84720019294f8462036
:102e60000092d3f804a094f8453094f8442008f573
:102e7000b2614846d047a36a0133a362d4f89420d4
:102e80000132c4f89420e362284607f077fe024638
:102e90000b46d4e9080107f025fdc4e908014ff00d
:102ea00034091be0b4f938001cf0fbfd20b9b4f97b
:102eb00038001ef0cafbc8b11df078f8c4f88c00c9
:102ec0000821204618f040ff33e04a463946b4f95d
:102ed000380012f01ffb343dadb23db1332df4d8b4
:102ee0002a463946b4f9380012f014fba36a63b9d4
:102ef00094f8cf30012b1cd10821204618f024ff74
:102f00001df054f8c4f88c0013e01df04ff8d4f80d
:102f1000a830c31a22689342ead90021204609f05a
:102f200081fee5e794f8cd30c3b30921204618f0bf
:102f30000bff0136d834724b1b68b34240f3d48286
:102f400094f8ce30012bf4d0023b102b00f2b1826a
:102f500001a252f823f000bff9270000f128000079
:102f60009f2b0000cd2b0000652d0000c12d00001f
:102f7000252f0000ad2f0000513000006f30000001
:102f800033320000173300009f3300008d340000ff
:102f900043310000ff330000a3340000022120462b
:102fa00009f040fe012384f8cd30bee7d4f8c430e8
:102fb0005d68237c012b2cd0022b2fd04f4be31ac2
:102fc000db1003ebc30203eb4203c3eb432303eb2e
:102fd0008343c3f10009d4f8c4301b685b684a46d8
:102fe00008f2d47128469847204619f06ffb94f8f0
:102ff000d130012b1ad0d4f8c4301b685b684a4624
:1030000008f63801284698470121204618f09cfe12
:103010008fe7b4f93c001cf0a5f8cfe7b4f938000d
:103020001af02bff4ff6ff732387c7e794f8cf30d2
:10303000002be0d1d4f8c4301b685b684a4608f620
:103040000401284698470221204618f07dfe70e7cb
:1030500004f14401d4f8c80019f0ebff0b2120461d
:1030600018f072fe1cf0a2ffc4f8ac0061e7d4f8bf
:10307000c4305d6894f8cf20012a11d094f8443010
:1030800003f0f003e02b16d1237c012b54d0237cda
:10309000022b7ff44eaf0c21204618f055fe48e776
:1030a0001b681b6808f658012846984701212046ee
:1030b00018f04afe3de704f1780204f14401d4f827
:1030c000c80015f04ff8e8b1d4f8c4301b6894f884
:1030d0007d20039294f87c20029294f87b20019248
:1030e00094f87a200092d3f8049094f8793094f808
:1030f000782008f6b8012846c847c5e7b0db0020ad
:10310000f8e500201cf052ffd4f8ac30a0eb030926
:103110001cf074ff00eb800081457ff60aafd4f805
:10312000c4301b681b6808f67801284698471cf0d5
:103130003dffc4f8ac00fce61021204618f004fe68
:10314000a5e7d4f8c4305d6804f14402618a012027
:103150001ef06affa087b0f1ff3f5dd00023c94a8f
:103160004ff4807119f0f1ffe2680521b4f93c00d9
:103170000bf0c8fa38b9d4f8c4301b681b6808f6dd
:10318000e4012846984702220621b4f93c000bf0de
:10319000b9fa38b9d4f8c4301b681b6808f60c11aa
:1031a00028469847d4f8c810b4f93c001af032fc0d
:1031b00006a9b4f93c0017f0b1febdf85e30a4f8e2
:1031c0007e30d4f8c4301b681b6808f56771284648
:1031d0009847d4f8c4301b68628a029294f847205a
:1031e000019294f846200092d3f8049094f8453068
:1031f00094f8442008f634112846c8471121204687
:1032000018f0a2fd1cf0d2fec4f88800d4f8843077
:103210000344c4f890308ce6d4f8c4301b681b68b3
:1032200008f5dd61284698470121204618f08cfdfd
:103230007fe6d4f8c4305d680022618a01201df069
:1032400088ff6087b0f1ff3f4fd000238e4a4ff4d4
:1032500000711af003f8d4f88030002b52d104f139
:10326000440300220121b4f93a0018f064ff4ff43e
:103270008063a4f87e30d4f8c4301b681b6808f55e
:10328000677128469847d4f8c4301b68628a029256
:1032900094f84720019294f846200092d3f80490c5
:1032a00094f8453094f8442008f66c112846c84735
:1032b0000d21204618f048fdd4f8b8200321b4f9b8
:1032c0003a0010f0c8fb38b9d4f8c4301b681b684a
:1032d00008f6e40128469847b4f93a001cf0a7f82c
:1032e0001cf064fec4f8ac0023e6d4f8c4301b68bc
:1032f0001b6808f29c61284698470121204618f077
:1033000023fd16e604f18003628a0121b4f93a0034
:1033100012f0eafca3e794f8cf30012b1ad0d4f8ce
:10332000c430d3f80490b4f93a001cf007ffb0b1f0
:10333000b4f93a001cf0b5fb1cf038fec4f8880064
:10334000d4f884300344c4f890300e21204618f09d
:10335000fbfceee50f21204618f0f6fce9e51cf039
:1033600025fed4f8ac50451b1cf048fe00eb800055
:1033700085427ff6deadb4f93a001af07efd4ff6d5
:10338000ff736387d4f8c4301b681b6808f6a41168
:10339000484698470f21204618f0d6fcc9e520463c
:1033a00006f02efd01280bd002287ff4c2ad0f21bc
:1033b000204618f0c9fc1cf0f9fdc4f88c00b8e5f3
:1033c0003422542138461ef0d9fbb4f8b03073b122
:1033d000332b94bf1d4634255b1ba4f8b0302a461e
:1033e0003946b4f93a000df0a5fb8542edd0b4f9a9
:1033f0003a001cf0b6fe20460cf03af899e5227d22
:103400000b21b4f93c000bf07df9204606f0f8fce6
:1034100001280bd002287ff48cad1221204618f031
:1034200093fc1cf0c3fdc4f88c0082e534225521c6
:1034300038461ef0a3fbb4f8b050bdb14ff0000900
:103440004ff0340a01e0002d41d0332d36d9343d00
:10345000adb209f134091ffa89f952463946b4f977
:103460003c0019f062fa3428edd030e0a9462ee095
:10347000b4f8b030a3eb0909a4f8b09020460bf0e3
:10348000f7ff56e5611602007716020020461cf091
:103490004dfcb4f93a001af0f0fc4ff6ff73638765
:1034a00047e520461cf042fcb4f93c001bf05afef4
:1034b0003fe50121204618f047fc3ae5a9441ffaf0
:1034c00089f92a463946b4f93c0019f02efab4f9c4
:1034d0003c000af0f3fc0028cad100221146b4f9de
:1034e0003c001af014fc24e51bb0bdec028bbde8d7
:0434f000f08f00bf9a
:020000040000fa
:1034f400b0e300201c0000000000000018e00020e1
:10350400680000000000000014df00200400000038
:1035140000000000b8da0020f800000001000000fc
:103524003cba0100000000000000000000000000a0
:103534000000000000000000000000000000000087
:103544000000000000000000000000000000000077
:103554000000000000000000000000000000000067
:103564000000000000000000000000000000000057
:103574000000000000000000000000000000000047
:103584000000000000000000000000000000000037
:103594000000000000000000000000000000000027
:1035a4000000000000000000000000000000000017
:1035b4000000000000000000000000000000000007
:1035c40000000000000000000000000000000000f7
:1035d40000000000000000000000000000000000e7
:1035e40000000000000000000000000000000000d7
:1035f40000000000000000000000000000000000c7
:1036040000000000000000000000000000000000b6
:1036140000000000000000008fe300200100000013
:1036240001000000ff00000078e500200400000015
:103634000000000018df00208000000000000000ef
:1036440014e7002002000000010000005400000004
:10365400f0dd00209400000000000000cce3002016
:1036640018000000000000007ce5002004000000b9
:103674000000000080e500200400000000000000bd
:1036840084e50020040000000000000088e500201c
:10369400040000000000000014e4002014000000f6
:1036a400000000008ce50020040000000000000081
:1036b40090e50020040000000000000094e50020d4
:1036c400040000000000000098e500200400000051
:1036d4000000000016e500200200000000000000c9
:1036e40012e7002002000000000000009ce500201a
:1036f4000400000000000000a0e500200400000019
:1037040000000000a4e50020040000000000000008
:10371400a8e500200400000000000000ace5002043
:103724000400000000000000a4e100204c000000a0
:103734000000000070e50020060000000100000009
:10374400ffffffffffff0000e4e30020180000007c
:1037540000000000b0e500200400000000000000ac
:10376400b4e500200400000000000000b8e50020db
:10377400040000000000000070e300201f000000af
:1037840000000000bce50020040000000000000070
:10379400c0e50020040000000000000016e700203f
:1037a4000200000000000000c4e500200400000046
:1037b4000000000004ca0020d00700000000000040
:1037c400c8e500200400000000000000cce5002053
:1037d4000400000000000000d0e500200400000008
:1037e40000000000d4e500200400000000000000f8
:1037f40018e700200200000000000000d8e50020c7
:103804000400000000000000dce5002004000000cb
:103814000000000004e5002011000000000000008a
:1038240090e300201f00000000000000e0e50020fd
:103834000400000000000000e4e500200400000093
:1038440000000000e8e50020040000000000000083
:10385400ece500200400000000000000afe30020bd
:10386400010000000000000015e500200100000038
:103874000100000001000000f0e500200400000049
:103884000100000064000000b0db0020d80000004c
:103894000000000068e20020340000000000000086
:1038a400f4e50020040000000000000011e70020ff
:1038b4000100000000000000f8e500200400000002
:1038c40000000000fce500200400000000000000ef
:1038d40000e60020040000000000000004e60020d0
:1038e400040000000000000028e500200c00000097
:1038f4000000000028e40020140000000000000084
:1039040028e7002001000000000000001ae7002062
:1039140002000000000000001ce70020020000007c
:103924000000000008e60020040000000000000081
:103934003ce4002014000000000000000ce600201d
:10394400040000000000000010e600200400000055
:10395400000000001ee7002002000000000000003c
:1039640020e70020020000000000000014e6002010
:10397400040000000000000018e60020040000001d
:10398400000000001ce6002004000000000000000d
:1039940050e40020140000000000000020e6002095
:1039a400040000000000000022e7002002000000e4
:1039b4000000000024e600200400000000000000d5
:1039c40028e600200400000000000000c8e20020f7
:1039d40028000000000000002ce600200400000085
:1039e4000000000084de00209000000000000000c1
:1039f400d4d10020700200000000000030e6002056
:103a0400040000000000000034e600200400000070
:103a14000000000038e60020040000000000000060
:103a24003ce60020040000000000000040e6002006
:103a3400040000000000000044e600200400000030
:103a44000000000048e60020040000000000000020
:103a540018e500201000000000000000fce3002036
:103a64001800000000000000f0e200202000000028
:103a7400000000004ce600200400000000000000ec
:103a840029e70020010000000000000050e60020ab
:103a9400040000000000000054e6002004000000c0
:103aa40001000000ffffffff58e6002004000000b3
:103ab400000000005ce6002004000000000000009c
:103ac40060e60020040000000000000064e600201e
:103ad400040000000000000024e7002002000000b1
:103ae4000000000068e60020040000000000000060
:103af4006ce60020040000000000000070e60020d6
:103b040004000000000000002ae70020010000007b
:103b1400000000009ce200202c00000000000000d7
:103b240004a00020001000000000000004b00020e9
:103b34000010000000000000f0e100204000000040
:103b44000000000058e5002008000000000000000c
:103b540074e60020040000000000000098df00204c
:103b6400800000000000000060e500200800000064
:103b74000000000004c00020000a00000000000053
:103b840078e60020040000000000000034e5002076
:103b94000c0000000000000040e500200c000000c4
:103ba4000000000088dc0020c800000000000000c5
:103bb4007ce6002004000000000000002be7002049
:103bc40001000000000000002ce7002001000000bc
:103bd4000000000080e60020040000000000000057
:103be40030e20020380000000000000050dd00201a
:103bf400a00000000000000026e7002002000000f2
:103c0400010000000100000084e600200400000020
:103c14000000000088e6002004000000000000000e
:103c24008ce600200400000000000000b0d9002051
:103c3400080100000000000090e6002004000000dd
:103c44000000000094e600200400000000000000d2
:103c540064e40020140000000000000078e4002068
:103c64001400000001000000010100005d1b0200bf
:103c74004d1b02006d1b02005299000098e60020c3
:103c84000400000001000000aaaaaaaa9ce60020e1
:103c940004000000000000000400002000a0000058
:103ca40000000000a0e60020040000000000000066
:103cb400a4e600200400000000000000a8e60020a4
:103cc4000400000000000000ace600200400000036
:103cd4000000000080e000206400000000000000fc
:103ce400b0e600200400000000000000b4e600205c
:103cf4000400000000000000b8e6002004000000fa
:103d040000000000bce600200400000000000000e9
:103d1400c0e6002004000000000000008ce4002045
:103d24001400000000000000a0e4002014000000c3
:103d340000000000c4e600200400000000000000b1
:103d4400c8e600200400000000000000cce60020cb
:103d54000400000000000000d0e600200400000081
:103d640000000000b4e40020140000000000000083
:103d7400d4e600200400000000000000c8e4002095
:103d84001400000000000000dce400201400000027
:103d940000000000d8e6002004000000000000003d
:103da400dce600200400000000000000e0e6002043
:103db400040000000000000044d4002000020000c1
:103dc400000000004ce500200c0000000100000091
:103dd4000000000000c700000607207de4e000208a
:103de4006000000000000000e4e600200400000081
:103df40000000000e8e600200400000000000000cd
:103e040068e500200800000001000000ffffffff3c
:103e1400fffffffff0e4002014000000000000009a
:103e240044d600200002000000000000ece6002060
:103e34000400000000000000f0e600200400000080
:103e44000000000010e70020010000000000000056
:103e540076e500200200000000000000f4e60020e7
:103e64000400000000000000f8e600200400000048
:103e740000000000fce60020040000000000000038
:103e840000e70020040000000100000044e10020dd
:103e940044e1002060000000010000000000000078
:103ea40030e3002050e3002010e300200000000075
:103eb40000000000000000000000000000000000fe
:103ec40000000000000000000000000000000000ee
:103ed40000000000000000000000000000000000de
:103ee40000000000000000000000000000000000ce
:103ef40000000000000000000000000004e70020b3
:103f0400040000000000000008e700200400000096
:103f14000000000010e3002020000000000000006a
:103f240030e30020200000000000000050e30020e7
:103f3400200000000000000044d800206c010000b4
:103f44000100000043000000000000000000000029
:103f5400000000000000000000000000000000005d
:103f6400000000004300000000000000000000000a
:103f7400000000000000000000000000000000003d
:103f840000000000430000000000000000000000ea
:103f9400000000000000000000000000000000001d
:103fa40000000000430000000000000000000000ca
:103fb40000000000000000000000000000000000fd
:103fc40000000000430000000000000000000000aa
:103fd40000000000000000000000000000000000dd
:103fe400000000004300000000000000000000008a
:103ff40000000000000000000000000000000000bd
:104004000000000043000000000000000000000069
:10401400000000000000000000000000000000009c
:104024000000000071120200690502000000000097
:10403400603c0100c11f0200c01f0200c01f02003b
:10404400c01f0200c01f0200c01f0200c01f0200e8
:10405400c01f0200c01f0200c01f0200ffffffffbd
:10406400ffffffffffffffffffff000001004153c1
:104074004349490000000000000000000000000067
:104084000000000000000000000000000000415398
:104094004349490000000000000000000000000047
:1040a400000000000000000000000000000000000c
:1040b4000000002004000000000000000ce70020c5
:1040c40004000000000000000000000000000000e8
:020000040000fa
:0440d4000020704711
:020000040000fa
:1040d8002de9f04f55ec104b99b0476a089183468b
:1040e8000d921493229ecde9044547b910201df086
:1040f80031fdc0e90177cbf824000760c760dbf821
:104108002430196859b15a684a60012393408b607a
:1041180058461bf09cfadbf8243000221a60002d68
:10412800bfbf0123336025f000430593a4bf0023dc
:104138003360059cb24ba3431ad1149a42f20f7311
:104148001360049bc4f31304234300f04f85239b9f
:1041580053b9ac4b23e0ac4b01930833239a13605b
:10416800019819b0bde8f08fa64b01930333f5e72a
:104178009ded047b0022002351ec170b8ded0e7b87
:104188000ff0a2fa074660b1149a01231360239b2b
:10419800002b00f028859d4b239a1360013b019367
:1041a800dee716aa17a99ded0e0b584613f0a3fbe0
:1041b800c4f30a568046002e7fd00f9b1597c3f391
:1041c8001303dde90e4543f07f5545f44015a6f28b
:1041d800ff3600228e4b2046294606f07dfb82a33f
:1041e800d3e9002305f012f881a3d3e9002306f0f0
:1041f80075fb044630460d4606f0bcfc7ea3d3e9a9
:10420800002305f003f802460b462046294606f02f
:1042180065fb04460d4618f045f900228246002346
:10422800204629460ff05afa48b1504606f0a2fc3b
:1042380022462b460ff048fa08b90af1ff3abaf1bc
:10424800160f59d8734b03ebca03d3e90023dde9f2
:104258000e010ff043fa002850d00af1ff3a00236c
:104268001193169b9e1b731e079345bfc6f101034e
:104278000693002300234cbf07930693baf1000f5f
:104288003edb079bcdf840a05344079300230993d6
:10429800089b092b00f28e80052bc4bf043b0893b2
:1042a800089ba3f10203ccbf00240124032b00f2d6
:1042b8008c80dfe803f02f716f7ddde916631e4403
:1042c80006f23240202811ddc0f14000049b8440f2
:1042d80006f2124023fa00f0204306f03bfc0123cb
:1042e8000446a1f1f875013e159372e7049bc0f1ed
:1042f800200003fa00f0f0e70123b1e71190b0e7de
:10430800069ba3eb0a030693caf100030993002353
:104318001093bde700230c930d9b002b59dc012360
:10432800029399460d93dbf8245000226a60042218
:1043380002f11400984269684fd9584616f08afc71
:10434800dbf8243028601b680193b9f10e0f00f2e6
:10435800e680002c00f0e380baf1000f78dd2d4aea
:104368000af00f0302ebc30393ed007b4fea2a1414
:10437800e2068ded0a7b69d5274bdde90e01d3e90d
:10438800082305f06df8cde9040104f00f040326b5
:10439800214d50e00123bee700230c930d9b5344ad
:1043a80003f1010902934b46012bb8bf0123bae779
:1043b8000123f2e70023012408930c94013b002217
:1043c800029399460d921223ade701230c93023b09
:1043d800f5e70d9b02939946a5e701316960520004
:1043e800a6e700bfaff3008061436f63a787d23fa2
:1043f800b3c8608b288ac63ffb799f501344d33fcc
:104408000000f07fd51b0200cc1b0200da1b020063
:104418000000f83f985a0100a0000200e30708d501
:10442800dde90a01d5e9002304f0f0fecde90a012f
:10443800013664100835002cf0d1dde90a23dde9e6
:10444800040105f00df8cde904011ae002269fe702
:1044580000f09f80caf100049f4ba04d04f00f02aa
:1044680003ebc203d3e90023dde90e0104f0cefe1d
:10447800cde90401241100230226002c7ed1002b53
:10448800e1d1119b002b00f08680dde90445002274
:10449800934b204629460ff021f900287bd0b9f12b
:1044a800000f78d0029b002b35dd0af1ff330a9309
:1044b800204600228b4b294604f0a8fecde90401d2
:1044c800029c0136304606f055fbdde9042304f072
:1044d8009dfe0022844b06f001fa0646a1f15077b2
:1044e800002c5cd10022814bdde9040106f0f4f9cf
:1044f80032463b46cde904010ff00ef9002840f0a2
:104508008982324607f10043dde904010ff0e6f83d
:10451800002840f07d82dde90e34cde90434179b94
:10452800002bc0f24f81baf10e0f00f34b816a4b9a
:1045380003ebca0393ed007b0d9b002b8ded027bf3
:1045480080f2d880b9f1000f00f3d48040f05f8288
:104558000022664b51ec170b04f058fedde90423ea
:104568000ff0d0f84c464e46002840f03882019da6
:10457800312305f8013b0af1010a34e2e70705d5c2
:10458800d5e9002304f042fe013601236410083502
:1045980073e7022675e7cdf828a04c4692e74e4b04
:1045a80003ebc40353e90201019b1c440c9b002b41
:1045b80046d002460b4600204d4904f051ff3246d2
:1045c8003b4606f089f9019d06460f46dde90401e0
:1045d80017f068ff129006f0cdfa02460b46dde9a7
:1045e800040106f079f9129b303305f8013b324695
:1045f8003b46cde904010ff071f8002860d1dde9f0
:1046080004230020364906f067f932463b460ff08e
:1046180065f8002840f0b480a5423ff47caf002242
:10462800304b3046394604f0f1fd002206460f466d
:104638002c4bdde9040104f0e9fdcde90401c5e7ef
:1046480032463b4604f0e2fdcde91201019e2546c3
:10465800dde9040117f026ff074606f08bfa30372c
:1046680002460b46dde9040106f036f906f8017b3f
:10467800a642cde904014ff0000226d11c4bdde92a
:10468800120106f02bf902460b46dde904010ff092
:1046980043f8002874d1dde912230020144906f0fc
:1046a8001bf902460b46dde904010ff017f8002854
:1046b8003ff431af15f8013c302b05f1ff3202d041
:1046c800ddf828a04ae01546f4e7064b04f09efd05
:1046d800cde90401bce700bf985a0100a000020020
:1046e8000000f03f0000244000001c40000014407f
:1046f8000000e03fdde90467019ddde90223304663
:10470800394604f0adfe17f0cdfe044606f032fa45
:10471800dde9022304f07afd02460b4630463946ad
:1047280004f1300606f0d8f805f8016b019eae1bbf
:10473800b14502460b4638d106f0d0f8dde9022330
:1047480006460f460ef0e8ffc0b9dde90223304601
:1047580039460ef0b9ff08b1e1070fd44146584673
:104768001af075ff0023149a2b700af101031360e5
:10477800239b002b3ff4f4ac1d60f1e4cdf828a096
:1047880015f8012c392a05f1ff3308d1019a9a420c
:1047980009d10a9a019901320a9230220a701a78cc
:1047a80001321a708ce71d46eae700229b4b04f0a1
:1047b8002dfd0022002306460f460ef085ff002837
:1047c8009bd0cbe70c9a002a00f0cb80089a012aec
:1047d80000f3ae80159a002a00f0a68003f2334356
:1047e800099c069d069a1a440692079a01211a44c2
:1047f800584607921df0ecf80646002d0cdd079b85
:10480800002b09ddab42069aa8bf2b46d21a0692a6
:10481800079aed1ad31a0793099bf3b10c9b002b47
:1048280000f0a380002c10dd31462246584613f0d4
:104838009bf942460146064658460df0e7fd4146bb
:10484800074658461af003ffb846099b1a1b04d0be
:104858004146584613f088f98046012158461df014
:10486800b7f8109b002b044640f381801a46014696
:10487800584613f079f9089b012b04467add002786
:10488800236904eb8303186919f0a0f9c0f120002b
:10489800079b184410f01f0000f08880c0f1200327
:1048a800042b40f38180c0f11c00069b034406934f
:1048b800079b034405440793069b002b05dd4146ef
:1048c8001a46584612f0eefc8046079b002b05dd81
:1048d80021461a46584612f0e5fc0446119b002b67
:1048e80066d0214640461af009fa002860da00230b
:1048f80041460a22584614f0b0fd0c9b0af1ff3ad3
:104908008046002b00f07981002331460a22584660
:1049180014f0a3fd029b002b064600f38980089b38
:10492800022b40f385804be0169bc3f1360357e713
:10493800099b09f1ff34a342bfbf099b0994e21afe
:10494800109bbbbf9b1810931c1b0024b9f1000fd0
:10495800b5bf069b069da3eb09054b46b8bf0023d0
:1049680040e7099c069d0c9e47e7099a70e7089b5b
:10497800012b15dc049b9bb9059bc3f313028ab971
:10498800274f1f4037b1069b01330693079b01331e
:1049980007930127109b002b7ff472af012077e764
:1049a8000027f7e7049ff5e786d018461c307ce718
:1049b800b9f1000f36dc089b022b33ddcdf80890e7
:1049c800029b63b921460522584614f046fd01466c
:1049d800044640461af092f900283ff7c8ad0d9bef
:1049e800019d6fea030a0027214658461af02ffe58
:1049f800002e3ff4b3ae2fb1b74203d03946584624
:104a08001af025fe314658461af021fea6e6002483
:104a18002646e4e7ddf828a02646a8e5000024405d
:104a28000000f07f0c9bcdf80890002b00f0ec8084
:104a3800002d05dd31462a46584612f033fc06465d
:104a4800002f56d07168584616f004f932690232c0
:104a58000546920006f10c010c301cf0fdfa01220b
:104a68002946584612f01efc019b03f10109dde9b5
:104a7800012313440993049b03f00103374607936a
:104a8800064609f1ff332146404602930df056fdd4
:104a9800034630330490394640460a931af02ef9fb
:104aa800324606902146584610f08effc2680a9b8f
:104ab800054602bb014640461af020f90a9b024609
:104ac800294658460c920a931af0c1fd089b0c9a85
:104ad80043ea0201079b0b434d460a9b0dd1392b34
:104ae80027d0069a002a01dd049b3133029a1370fd
:104af8007ae73046b8e70122e2e70699002904dba5
:104b080008980143079801431ed1002aeedd41466b
:104b180001225846069312f0c5fb214680461af03a
:104b2800edf80028069b02dce0d1da07ded5392b48
:104b3800dad1029a3923137015f8013c392b05f1a3
:104b4800ff3246d00133d2e7002a03dd392bf0d0fb
:104b58000133cbe7099a09f8013c914520d0414639
:104b680000230a22584614f078fcb74280464ff0da
:104b780000034ff00a023946584606d114f06dfc7e
:104b88000746064609f101097be714f066fc002395
:104b980007460a223146584614f05ffcf1e7002721
:104ba800414601225846029312f07cfb214680467a
:104bb8001af0a4f80028bfdc02d1029bdb07bbd4a3
:104bc80015f8013c302b05f1ff327ff40daf154687
:104bd800f6e7019b934204d10af1010a3123019ab5
:104be80085e71546a8e7134bfff7d9ba239b002b97
:104bf8007ff4b1aa104bfff7d2ba029b002b03dc5b
:104c0800089b022b3ff7dcae019d214640460df084
:104c180095fc00f1300305f8013b019a0299aa1aa4
:104c28009142bcdd414600230a22584614f015fc87
:0c4c38008046eae7d91b0200cc1b0200fa
:020000040000fa
:104c440055736167653a20697065726673203c2dff
:104c540074782073697a653e203c2d7278207369dc
:104c64007a653e203c2d6920696e6465783e0d0aa4
:104c7400000000002d7478002d7278002d6900006a
:104c84002d2d696e646578006970657266693a20d5
:104c9400556e6b6e6f776e20706172616d657465b1
:104ca400720d0a000d0a69706572663a20496e76c3
:104cb400616c69642073657373696f6e206e756dc2
:104cc4006265722e204d696e3a20302c204d617839
:104cd4003a2025640d0a00006970657266733a20f3
:104ce40030203c2073697a65203c203635353336d4
:104cf4000d0a00006970657266733a204f4b2c20d0
:104d040073657420696e7374616e63652025642015
:104d140072782073697a6520746f2025640d0a0007
:104d24006970657266733a204f4b2c20736574204a
:104d3400696e7374616e63652025642074782073d2
:104d4400697a6520746f2025640d0a0069706572a4
:104d5400666b3a205573696e6720696e64657820c6
:104d6400300d0a000d0a69706572662073657373ed
:104d7400696f6e3a206e6f74207374617274656427
:104d8400210d0a000d0a69706572663a2074727901
:104d9400696e6720746f2073746f70206970657218
:104da4006620696e7374616e63652025642e2e2ef1
:104db4000d0a000055736167653a20697065726673
:104dc4006b203c2d6920696e6465783e0d0a0000f5
:104dd4002d6100006970657266693a2075736520fb
:104de400612076616c696420495020616464726555
:104df4007373210d0a00000055736167653a2069d9
:104e04007065726669202d612061646472657373d4
:104e1400203c2d6920696e6465783e0d0a0000000f
:104e24000d0a6970657266693a2063616e6e6f740b
:104e3400206368616e67652074686520697020610d
:104e4400646472657373207768696c652073657335
:104e540073696f6e3a2025642072756e6e696e6791
:104e6400210d0a006970657266693a204f4b2c2047
:104e740073657420746865204950206164647265a8
:104e8400737320746f20696e7374616e63653a2066
:104e940025640d0a000000002d7300002d2d73659c
:104ea40072766572000000002d7500002d2d75646a
:104eb400700000002d6200002d2d62616e64776920
:104ec400647468004d0000004b0000000a476976d6
:104ed400656e20696e2042573a20256c752b256c2f
:104ee400753d256c750000002d7800002d2d786d22
:104ef40069747261746500002d6300002d2d636c6c
:104f040069656e74000000002d7400002d2d746915
:104f14006d6500002d6e00002d2d6e756d00000076
:104f24002d5300002d2d746f730000000a4769761d
:104f3400656e20544f532076616c7565206973202b
:104f440025642c206d547970654f665365727669bb
:104f540063653a25640000002d4d00002d2d6d730e
:104f6400730000002d2d696e74657276616c00000b
:104f74002d7000002d2d706f727400002d6c0000d8
:104f84002d2d6c656e00000069706572663a2054c0
:104f94006865206d696e696d756d20646174616703
:104fa40072616d2073697a652069732025640d0a26
:104fb4000000000069706572663a205573696e6777
:104fc400207468652064656661756c7420696e740c
:104fd400657266616365210d0a0000002d2d2d2d7b
:104fe4002d2d2d2d2d2d2d2d2d2d2d2d2d2d2d2ded
:104ff4002d2d2d2d2d2d2d2d2d2d2d2d2d2d2d2ddd
:105004002d2d2d2d2d2d2d2d2d2d2d2d2d2d2d2dcc
:105014002d2d2d2d2d0d0a0069706572663a2053d1
:105024006572766572206c697374656e696e67204b
:105034006f6e2000554450005443500020706f722e
:10504400742025640d0a00000d0a69706572663ac1
:1050540020416c6c20696e7374616e6365732062a9
:105064007573792e205265747279206c617465723f
:10507400210d0a000d0a69706572663a2053746145
:105084007274696e672073657373696f6e20696edd
:105094007374616e63652025640d0a0025346c7594
:1050a400204b627073000000202020202d205b25ff
:1050b400326c752d2025326c75207365635d202557
:1050c400336c752f2025336c75202825326c75259b
:1050d40025292020202025346c75204b6270730d07
:1050e4000a0000004156473a2025346c75204b6273
:1050f40070730000697065726620646f6e650000ed
:10510400202020202d205b302e302d20256c752e64
:10511400256c75207365635d2025336c752f202500
:10512400336c75202825326c7525252920202020f4
:1051340025346c75204b6270730d0a0069706572ba
:10514400663a20696e7374616e636520256420631a
:105154006f6d706c657465640a0d0000697065722a
:10516400663a20536f636b65742073656e642066c2
:1051740061696c65640d0a000d0a69706572663aae
:1051840020696e7374616e63652025642073746195
:1051940072746564202e2e2e0d0a0000202020201b
:1051a4002d204c6f63616c202025752e25752e25ce
:1051b400752e257520706f727420257520636f6eaf
:1051c4006e656374656420776974680d0a00000075
:1051d400202020202d2052656d6f74652025752eaa
:1051e40025752e25752e257520706f7274202575f2
:1051f4000d0a0000202020202d2054617267657460
:105204002072617465203d20256c64206270732ccb
:1052140020706572696f64203d20256c64206d7375
:105224000d0a0000202020202d2d2d2d2d2d2d2d7b
:105234002d2d2d2d2d2d2d2d2d2d2d2d2d2d2d2d9a
:105244002d2d2d2d2d2d2d2d2d2d2d2d2d2d2d2d8a
:105254002d0d0a000d0a69706572663a2057617255
:105264006e696e672c2054435020736572766572a4
:1052740020646973636f6e6e65637420646574651e
:10528400637465640d0a000069706572663a2046ad
:1052940061696c656420746f2067657420256420df
:1052a400627974657320736f636b6574205458203e
:1052b40073706163650d0a0069706572663a205502
:1052c4006e737570706f7274656420436f6e666977
:1052d4006775726174696f6e0d0a0000697065729a
:1052e400663a204372656174652054435020736f9d
:1052f400636b6574206661696c65640d0a00000067
:1053040069706572663a20536574206f662052583e
:10531400206275666665722073697a6520666169c4
:105324006c65640d0a00000069706572663a20437a
:1053340072656174652055445020736f636b6574a6
:10534400206661696c65640d0a000000697065720d
:10535400663a2050726f746f636f6c206572726f5f
:10536400720d0a0069706572663a205544502047f0
:105374006574204172726179204661696c65640dbf
:105384000a00000069706572663a202d2046697231
:10539400737420706b74206964203d20256c642034
:1053a4002873686f756c642062652030290d0a00cb
:1053b40069706572663a2052656376206475706c14
:1053c40069636174656420706b740d0a00000000e9
:1053d40069706572663a2052782074696d6564203c
:1053e4006f75740d0a0000000d0a69706572663ae3
:1053f40020696e7374616e63652025642073657320
:1054040073696f6e2073746172746564202e2e2e1e
:105414000d0a00000d0a697065726620696e737466
:10542400616e63652025643a20527820646f6e654e
:105434002e20536f636b657420636c6f7365642ee9
:105444000d0a0000697065726620696e7374616e7e
:1054540063652025643a20526561647920666f7221
:1054640020746865206e6578742073657373696f42
:105474006e2e0d0a00000000697065726620696e68
:105484007374616e63652025643a20636f6d706c7c
:10549400657465642e0d0a0069706572663a20634e
:1054a4006c69656e742073657373696f6e20636cc9
:1054b4006f7365642e0d0a0069706572663a204147
:1054c400525020756e61626c6520746f2072657332
:1054d4006f6c766520746865204d41432061646477
:1054e40072657373206f662072656d6f74652073c7
:1054f4006964652e0d0a0000202020202d205265ad
:105504006d6f74654e6f6465204d41433a20257874
:105514002025782025782025782025782025780dc9
:105524000a00000069706572663a20536574206f42
:1055340066205458206275666665722073697a65c0
:10554400206661696c65640d0a000000697065720b
:10555400663a20536574206f66205458207175652f
:1055640075696e67206c696d6974206661696c6524
:10557400640d0a0069706572663a20436c69656e51
:105584007420636f6e6e656374696e6720746f2038
:1055940025752e25752e25752e25752c20554450e0
:1055a40020706f72742025750d0a00006970657291
:1055b400663a20436c69656e7420636f6e6e656332
:1055c40074696e6720746f2025752e25752e2575d8
:1055d4002e25752c2054435020706f72742025752d
:1055e4000d0a000069706572663a205443502043e6
:1055f4006c69656e7420636f6e6e656374696f6e3b
:105604002074696d656f75740d0a00003a20697025
:1056140065726620636f6d6d616e647300000000d7
:1056240069706572660000003a20203c69706572fa
:10563400663e20737461727420636d640000000020
:1056440069706572666b00003a203c697065726629
:105654006b3e206b696c6c20636d640069706572cd
:10566400666900003a203c6970657266692061646d
:1056740064726573733e2020696e7465726661633b
:105684006520636d640000006970657266730000d4
:105694003a203c6970657266732074782f727820a2
:1056a40073697a653e2074782f72782073697a65fd
:0856b40020636d64000000bfdb
:020000040000fa
:1056bc005478204279746520436f756e742d6c6f2d
:1056cc00776572203332626974732854784f544c66
:1056dc004f290000651c0200547820427974652023
:1056ec00436f756e742d75707065722031366269fa
:1056fc0074732854784f544849290000711c0200d7
:10570c005478204672616d657320772f6f20657217
:10571c00726f722854784654434e5429000000008e
:10572c00000000007d1c020054782042726f6164fe
:10573c0063617374204672616d65732854784243bb
:10574c00465429000000000000000000891c0200e3
:10575c005478204d756c7469636173742046726162
:10576c006d65732854784d465429000000000000e4
:10577c0000000000951c0200547820506175736580
:10578c00204672616d657328547850465429000088
:10579c00000000000000000000000000a11c02003e
:1057ac0054782036342d62797465204672616d65ab
:1057bc007328547842465436342900000000000007
:1057cc0000000000ad1c020054782036352d31321b
:1057dc00372062797465204672616d657328544276
:1057ec00465431323729000000000000b91c020079
:1057fc005478203132382d32353520627974652059
:10580c004672616d65732854424654323535290011
:10581c0000000000c51c02005478203235362d35ae
:10582c0031312062797465204672616d657328543c
:10583c00424654353131290000000000d11c0200d1
:10584c005478203531322d31303233206279746501
:10585c00204672616d6573285442465431303233a0
:10586c0029000000dd1c0200547820313032342d28
:10587c00313531382062797465204672616d6573fb
:10588c00285442465431353138290000e91c0200b5
:10589c005478204672616d6573203e3d2031353160
:1058ac00382062797465284754424631353138299d
:1058bc0000000000f51c0200547820556e646572df
:1058cc0072756e204672616d6573206e6f74205414
:1058dc00586564285478545552290000011d020063
:1058ec0054782053696e676c6520436f6c6c6973d8
:1058fc00696f6e204672616d657328547853434608
:10590c00290000000d1d0200547820322d31352065
:10591c00436f6c6c6973696f6e204672616d657351
:10592c002854784d4346290000000000191d020040
:10593c00547820313620436f6c6c6973696f6e201c
:10594c004672616d65732854784543434e54290063
:10595c0000000000251d02005478206c6174652045
:10596c00436f6c6c6973696f6e204672616d657301
:10597c002854784c43434e5429000000311d02003a
:10598c005478204465666572726564204672616d58
:10599c006573285478445446290000000000000028
:1059ac00000000003d1d02005478204361727269b2
:1059bc0065722053656e7365206572726f72204636
:1059cc0072616d657328547843534529491d020053
:1059dc005278204279746520436f756e742d6c6f0c
:1059ec00776572203332626974732852784f524c47
:1059fc004f290000551d0200527820427974652011
:105a0c00436f756e742d75707065722031366269d6
:105a1c0074732852784f524849290000611d0200c6
:105a2c005278204672616d657320772f6f206572f6
:105a3c00726f722852784652434e5429000000006f
:105a4c00000000006d1d020052782042726f6164ec
:105a5c0063617374204672616d657328527842439a
:105a6c00465229000000000000000000791d0200d1
:105a7c005278204d756c7469636173742046726141
