:020000040000fa
:10000000f0ff03200da4010053800100a384010030
:100010006f910100fb930100c79a010000000000ee
:1000200000000000000000000000000001270200a6
:100030002f8c010000000000b1ce0100811b0200e6
:10004000f7700100f7700100f7700100f770010010
:10005000f7700100f7700100f7700100f770010000
:10006000f7700100f7700100f7700100f7700100f0
:10007000f7700100f7700100f7700100f7700100e0
:10008000f7700100f7700100f7700100f7700100d0
:10009000f7700100f7700100f7700100f7700100c0
:1000a000f7700100f7700100f7700100f7700100b0
:1000b000f7700100f7700100f7700100f7700100a0
:1000c000f7700100f7700100f7700100f770010090
:1000d000f7700100f7700100f7700100f770010080
:1000e000f7700100f7700100000000000000000040
:1000f00000000000f77001003125010031250100ea
:100100003125010031250100d1200100d12001005d
:10011000d1200100d1200100f7700100f77001002b
:10012000f7700100f7700100f7700100f77001002f
:10013000f7700100f7700100f7700100f77001001f
:10014000f7700100f7700100f7700100f77001000f
:10015000f7700100f7700100f7700100f7700100ff
:10016000f7700100f7700100f7700100f7700100ef
:10017000f7700100f7700100f7700100f7700100df
:10018000f7700100f7700100f7700100f7700100cf
:100190002d110200f7700100f7700100f7700100e7
:1001a000f7700100f7700100f7700100f7700100af
:1001b000f7700100f7700100f7700100f77001009f
:1001c000f7700100f7700100f7700100f77001008f
:1001d000f7700100f7700100f7700100f77001007f
:1001e000f7700100f7700100f7700100d11a0200ea
:1001f000f7700100f7700100f7700100f77001005f
:10020000f7700100f7700100f7700100f77001004e
:10021000f7700100f7700100f7700100f77001003e
:10022000f7700100f7700100f7700100f77001002e
:10023000f7700100f7700100f7700100f77001001e
:10024000f7700100f7700100f7700100f77001000e
:10025000f7700100f7700100f7700100f7700100fe
:04026000f770010032
:020000040000fa
:10026400f8b500bff8bc08bc9e467047c9f701004a
:10027400f8b500bff8bc08bc9e467047a5f701005e
:020000040000fa
:08028400a8d4000001000000f5
:020000040000fa
:10028c0055736167653a206d6163696e666f200d09
:10029c000a00000045783a206d6163696e666f2034
:1002ac000d0a0000496e746572666163653a20251b
:1002bc007320447269766572205374617469737427
:1002cc006963730d0a0000000d0a205265636569ad
:1002dc00766520537461746973746963730d0a00d5
:1002ec0009206e52784f6b5061636b6574733a20c2
:1002fc0025640d0a09206e527850656e644275664d
:10030c00666572733a2025640d0a09206e52785383
:10031c0063686564427566666572733a2025640d80
:10032c000a00000009206e52784572726f7250619b
:10033c00636b6574733a2025640d0a09206e52783c
:10034c00467261676d656e744572726f72733a2096
:10035c0025640d0a09206e5278427566664e6f74dc
:10036c00417661696c61626c653a2025640d0a0006
:10037c000d0a205472616e736d697420537461742c
:10038c006973746963730d0a0000000009206e54d0
:10039c00784f6b5061636b6574733a2025640d0a5a
:1003ac0009206e547850656e64427566666572738a
:1003bc003a2025640d0a09206e54784572726f72ca
:1003cc005061636b6574733a2025640d0a09206ec5
:1003dc005478517565756546756c6c3a2025640dbd
:1003ec000a0d0a00096e6f7420737570706f727449
:1003fc0065640d0a00000000496e746572666163e5
:10040c00653a2025732048617264776172652052c9
:10041c0065676973746572205374617475730d0a22
:10042c0000000000092025733a20307825780d0a49
:10043c0000000000656e61626c656400656e61624f
:10044c006c65000064697361626c65640000000097
:10045c0064697361626c650055736167653a202548
:10046c0073203c696e746572666163653e203c6ff7
:10047c006e2f6f66663e200d0a00000045783a200c
:10048c002573205049433332494e54206f6e200d52
:10049c000a000000556e6b6e6f776e20696e746586
:1004ac0072666163650d0a006f6e00006f66660010
:1004bc00556e6b6e6f776e206f7074696f6e0d0a70
:1004cc000000000025732025730d0a004661696c3d
:1004dc00656420746f2025732025730d0a000000bd
:1004ec00556e6b6e6f776e207365727669636520df
:1004fc0025730d0a000000006e6f6e650000000091
:10050c00201800000100000034130000020000005d
:10051c00b404000003000000b80400000300000055
:10052c00241800000400000055736167653a2064cc
:10053c006e7363203c64656c2f696e666f2f6f6ef3
:10054c002f6f66662f6c6f6f6b75703e200d0a00f7
:10055c0055736167653a202573203c6f6e2f6f666b
:10056c00663e203c696e746572666163653e203c34
:10057c007374726963742f707265663e2f3c636c82
:10058c006561723e200d0a0045783a202573206f74
:10059c006e20657468300d0a000000007374726977
:1005ac00637400007072656600000000636c656126
:1005bc007200000055736167653a20646e736320a6
:1005cc006c6f6f6b7570203c747970653e203c6865
:1005dc006f73744e616d653e200d0a0048656c703a
:1005ec003a203c686f73744e616d653e2855524cd1
:1005fc0029202d206c6f6f6b20757020666f722018
:10060c00686f73746e616d650d0a000048656c70df
:10061c003a203c747970653e203a2061206f72203c
:10062c004120666f72204950763420616464726593
:10063c007373206c6f6f6b75700d0a0048656c706e
:10064c003a203c747970653e203a206161616120ea
:10065c006f72204141414120666f722049507636bd
:10066c002061646472657373206c6f6f6b75700db1
:10067c000a00000048656c703a203c747970653e45
:10068c00203a20616e7920666f7220626f74682048
:10069c004950763420616e6420495076362061646e
:1006ac006472657373206c6f6f6b75700d0a00004c
:1006bc00646e7363206c6f6f6b75703a20636f6d33
:1006cc006d616e6420696e2070726f6772657373f2
:1006dc002e205265747279206c617465722e0d0a2d
:1006ec000000000041000000610000004141414158
:1006fc00000000006161616100000000414e590082
:10070c00616e7900646e7363206c6f6f6b75703af9
:10071c00205b25735d204c6f6f6b75702054797066
:10072c0065206e6f7420737570706f727465642eb3
:10073c000d0a0000646e7363206c6f6f6b75703afa
:10074c0020486f7374206e616d6520746f6f206c20
:10075c006f6e672e2052657472792e0d0a000000a0
:10076c00646e7363206c6f6f6b75703a2072657377
:10077c006f6c76696e6720686f73743a20257320ee
:10078c00666f7220747970653a2573200d0a00002b
:10079c0055736167653a20646e73632064656c20e1
:1007ac003c686f73744e616d653e7c616c6c200da2
:1007bc000a00000048656c703a203c686f73744ef8
:1007cc00616d653e2855524c29202d2052656d6f68
:1007dc0076652074686520656e7472792069662070
:1007ec00657869737473200d0a00000048656c709d
:1007fc003a20616c6c202d2052656d6f76652061fe
:10080c006c6c20746865207265736f6c76656420ff
:10081c00656e747279200d0a00000000616c6c002a
:10082c005b25735d206e6f742070617274206f662f
:10083c002074686520444e532043616368652065cd
:10084c006e747279200d0a00496e636f6d706c6561
:10085c00746520636f6d6d616e64200d0a0000007d
:10086c0055736167653a20646e736320696e666fb9
:10087c00200d0a0048656c703a20646973706c61d5
:10088c00792074686520444e532063616368652049
:10089c00656e7472792064657461696c73200d0add
:1008ac0000000000444e5320436c69656e7420694f
:1008bc007320646f776e210d0a000000444e5320a4
:1008cc00436c69656e74204946202d2053747269ff
:1008dc0063743a2025732c205072656665727265bc
:1008ec00643a2025730d0a00444e5320436c69650d
:1008fc006e74202d2074696d653a2025642c20704f
:10090c00656e64696e673a2025642c20637572727b
:10091c00656e743a2025642c20746f74616c3a20d7
:10092c0025640d0a00000000486f73746e616d65dc
:10093c00203d202573200d0a54696d656f75742058
:10094c003d202564200d0a0049507634203d257346
:10095c000d0a000049507636203d2025730d0a0003
:10096c002d2d2d2d2d2d2d2d2d2d2d2d2d2d2d2dab
:10097c002d2d2d2d2d2d2d2d2d2d2d2d2d2d2d2d9b
:10098c002d2d2d2d2d2d2d2d2d2d2d2d2d2d2d2d8b
:10099c002d2d2d2d0d0a00004e6f20444e5320435b
:1009ac006c69656e7420436163686520656e747252
:1009bc00696573200d0a0000496e76616c696420cc
:1009cc00496e70757420436f6d6d616e64203a5b77
:1009dc00202573205d200d0a0000000050696e6711
:1009ec003a20646f6e652e2053656e74202564204a
:1009fc0072657175657374732c20726563656976a5
:100a0c006564202564207265706c6965732e0d0a0f
:100a1c000000000050696e672055736167653a20cd
:100a2c0070696e67203c73746f703e2f3c6e616d05
:100a3c00652f616464726573733e203c6920696e36
:100a4c00746572666163653e203c6e206e50696e03
:100a5c0067733e203c74206d73506572696f643e01
:100a6c00203c732073697a653e0d0a0073746f70b5
:100a7c000000000050696e673a20636f6d6d616e07
:100a8c006420696e2070726f67726573732e2052ca
:100a9c0065747279206c617465722e0d0a00000009
:100aac0050696e673a20486f7374206e616d6520d3
:100abc00746f6f206c6f6e672e2052657472792e76
:100acc000d0a0000690000006e00000074000000b8
:100adc007300000050696e673a20446174612073a2
:100aec00697a6520746f6f206269672e204d61787a
:100afc003a2025642e2052657472790d0a0000008c
:100b0c0050696e673a20556e6b6e6f776e20706110
:100b1c0072616d657465720d0a00000050696e6734
:100b2c003a207265736f6c76696e6720686f7374a8
:100b3c003a2025730d0a000055736167653a2064ed
:100b4c0068637073696e666f203c696e746572665b
:100b5c006163653e200d0a0045783a206468637035
:100b6c0073696e666f205049433332494e54200de1
:100b7c000a000000556e6b6e6f776e20696e74659f
:100b8c00726661636520737065636966696564206c
:100b9c000d0a00004d414320416464726573730972
:100bac0009495041646472657373090952656d613a
:100bbc00696e696e674c6561736554696d65200d6e
:100bcc000a000000200d0a204e6f206d6f72652008
:100bdc00656e7472792070726573656e74200d0a7f
:100bec0000000000257300000925732000000000a0
:100bfc0009256420536563730d0a0000556e6b6ef6
:100c0c006f776e206865617020747970652e205541
:100c1c0073653a205b312c2025645d0d0a000000c1
:100c2c004e6f206865617020696e666f206578690b
:100c3c0073747320666f7220747970653a20257313
:100c4c00210d0a004865617020747970653a202581
:100c5c00732e20496e697469616c206372656174ce
:100c6c00656420686561702073697a653a20256433
:100c7c002042797465730d0a00000000416c6c6fa2
:100c8c006361626c6520626c6f636b206865617078
:100c9c002073697a653a2025642042797465730d56
:100cac000a000000416c6c20617661696c61626cb9
:100cbc006520686561702073697a653a2025642027
:100ccc0042797465732c2068696768207761746554
:100cdc00726d61726b3a2025640d0a004c6173745d
:100cec002068656170206572726f723a20307825c9
:100cfc00780d0a004e6f20547261636520696e6630
:100d0c006f206578697374732e0d0a0053746163d8
:100d1c006b207570206661696c65640d0a000000bb
:100d2c00537461636b2075702073756363656564c0
:100d3c0065640d0a0000000055736167653a207305
:100d4c007461636b203c75702f646f776e3e203c32
:100d5c0070726573657276653e0d0a0045783a20af
:100d6c00737461636b20646f776e2070726573654a
:100d7c007276650d0a000000757000005374616393
:100d8c006b20616c7265616479207570210d0a00ad
:100d9c005475726e20537461636b20646f776e2090
:100dac00616e64207468656e207570210d0a0000f8
:100dbc0052657374617274696e6720746865207310
:100dcc007461636b207769746820256420696e7484
:100ddc006572666163652873290d0a00646f776e0e
:100dec0000000000537461636b20646f776e3a20cf
:100dfc0063616e6e6f74206765742061207374611b
:100e0c00636b2068616e646c650d0a0053746163da
:100e1c006b20646f776e20737563636565646564be
:100e2c000d0a000055736167653a206966203c69bc
:100e3c006e746572666163653e203c646f776e2fdd
:100e4c0075703e200d0a000045783a2069662050e6
:100e5c0049433332494e5420646f776e200d0a009b
:100e6c005468697320696e7465726661636520618c
:100e7c006c72656164792075700d0a004f70657233
:100e8c006174696f6e206661696c65642e204e6fab
:100e9c0020636f6e66696775726174696f6e0d0a97
:100eac000000000066756c6c0000000054686973eb
:100ebc0020696e7465726661636520616c72656130
:100ecc00647920646f776e0d0a00000057726f6ea4
:100edc006720706172616d657465722073706563f3
:100eec006966696564200d0a000000004f70657228
:100efc006174696f6e207375636365737366756c6b
:100f0c00210d0a004f7065726174696f6e20666105
:100f1c00696c6564210d0a0055736167653a20732d
:100f2c0065746d6163203c696e746572666163659e
:100f3c003e203c783a783a783a783a783a783e20bb
:100f4c000d0a000045783a207365746d616320507a
:100f5c0049433332494e542061613a62623a6363c9
:100f6c003a64643a65653a6666200d0a0000000032
:100f7c00617267765b325d3a2025730d0a000000c2
:100f8c00496e76616c6964204d41432061646472e2
:100f9c0065737320737472696e67200d0a0000000c
:100fac00536574204d4143206164647265737320f2
:100fbc006661696c65640d0a00000000536574205d
:100fcc0042494f53204e616d65204f4b0d0a000076
:100fdc005365742042494f53204e616d6520666104
:100fec00696c65640d0a000055736167653a20737e
:100ffc00657462696f73203c696e746572666163b7
:10100c00653e203c782e782e782e783e200d0a00f6
:10101c0045783a2073657462696f73205049433385
:10102c0032494e54204d434850424f4152445f3256
:10103c0039200d0a00000000536574206761746547
:10104c007761792061646472657373204f4b0d0a6c
:10105c000000000053657420676174657761792026
:10106c0061646472657373206661696c65640d0af2
:10107c000000000055736167653a207365746777eb
:10108c00203c696e746572666163653e203c6970d4
:10109c0076342f3620616464726573733e203c761f
:1010ac00616c696454696d653e200d0a0000000096
:1010bc0045783a2073657467772050494333324939
:1010cc004e54203139322e3136382e302e31200dff
:1010dc000a000000496e76616c69642049502061f9
:1010ec0064647265737320737472696e67200d0a81
:1010fc00000000005365742069702061646472659f
:10110c007373204f4b0d0a00536574206970206176
:10111c00646472657373206661696c65640d0a00a2
:10112c0055736167653a207365746970203c696e0c
:10113c00746572666163653e203c697076342f3647
:10114c0020616464726573733e203c697076346d03
:10115c0061736b2f697076362070726566697820c2
:10116c006c656e3e0d0a000045783a207365746913
:10117c0070205049433332494e54203139322e318c
:10118c0036382e302e38203235352e3235352e323b
:10119c0035352e30200d0a004e6f20737563682094
:1011ac00696e746572666163652069732075700d74
:1011bc000a000000416e20616464726573732073d1
:1011cc0065727669636520697320616c7265616410
:1011dc00792072756e6e696e672e2053746f702055
:1011ec00444843502c205a434c4c2c206574632e9d
:1011fc002066697273740d0a00000000496e7661f6
:10120c006c6964204950206d61736b207374726932
:10121c006e67200d0a0000007375636365737300bd
:10122c006661696c6564000055736167653a20738b
:10123c006574646e7320312f32203c696e74657254
:10124c00666163653e203c782e782e782e783e20a1
:10125c000d0a000045783a20736574646e73203172
:10126c002065746830203235352e3235352e3235c6
:10127c00352e30200d0a0000556e6b6e6f776e2088
:10128c00444e5320696e6465780d0a0053657420d2
:10129c00444e532025642061646472657373202569
:1012ac00730d0a006e6f7420676976656e0000001e
:1012bc004e6f6e65000000006661696c00000000f6
:1012cc0055736167653a202573203c696e746572ad
:1012dc00666163653e203c6f6e2f6f66662f72658c
:1012ec006e65772f726571756573742f696e666f95
:1012fc003e200d0a0000000072656e65770000004c
:10130c0072657175657374005265717565737420bf
:10131c006e6565647320616e20495020616464724f
:10132c006573730d0a000000696e666f00000000a3
:10133c0044484350207374617475733a20256420bb
:10134c0028202564203d3d20426f756e64292c2099
:10135c0074696d653a2025640d0a000044484350b9
:10136c00206c656173652073746172743a20256416
:10137c002c206475726174696f6e3a202564730d4c
:10138c000a000000444843502072656e6577207453
:10139c00696d653a2025642c20726562696e642043
:1013ac0074696d653a2025640d0a00004448435069
:1013bc0020616464726573733a2025730d0a000012
:1013cc0044484350207365727665723a2025730d3c
:1013dc000a0000004448435020626f6f74206e6115
:1013ec006d653a2025730d0a0000000044484350f7
:1013fc002054696d6520736572766572733a202589
:10140c00642c2025730d0a0044484350204e545040
:10141c0020736572766572733a2025642c202573cf
:10142c000d0a0000444843503a206661696c6564bb
:10143c0020746f2067657420696e666f0d0a00005a
:10144c0025732025732025730d0a000073756363c3
:10145c0065737366756c00006661696c6564210068
:10146c00736574006765740044656661756c7420ff
:10147c00696e74657266616365207365742025738b
:10148c000d0a000044656661756c7420696e7465a4
:10149c0072666163652069733a2025730d0a00003a
:1014ac0055736167653a206465666e657420736573
:1014bc00742f676574203c696e7465726661636530
:1014cc003e0d0a0045783a206465666e657420739b
:1014dc00657420657468300d0a00000055500000da
:1014ec00444f574e000000005265616479000000c3
:1014fc004e6f7420526561647900000064686370fb
:10150c007300000064656661756c7420495020613d
:10151c00646472657373000055736167653a206e7d
:10152c006574696e666f0d0a0000000045783a20fc
:10153c006e6574696e666f0d0a0000002d2d2d2de1
:10154c002d2d2d2d2d2d20496e74657266616365d0
:10155c00203c25732f25733e202d2d2d2d2d2d2d2b
:10156c002d2d2d200d0a0000496e74657266616385
:10157c006520697320646f776e0d0a00486f737471
:10158c00204e616d653a202573202d204e424e531e
:10159c002064697361626c6564200d0a00000000b0
:1015ac004950763420416464726573733a20257314
:1015bc000d0a00004d61736b3a2025730d0a000073
:1015cc00476174657761793a2025730d0a00000034
:1015dc00444e53313a2025730d0a0000444e5332c9
:1015ec003a2025730d0a00004d414320416464727a
:1015fc006573733a2025730d0a00000064686370ec
:10160c002069732025730d0a000000004c696e6b75
:10161c002069732025730d0a000000005374617457
:10162c0075733a2025730d0a00000000646863701e
:10163c00000000002573206973204f4e0d0a000036
:10164c0050696e673a2077726f6e67207265706ca6
:10165c00792072656365697665642e204d61736bc4
:10166c003a2030782532780d0a00000050696e67f8
:10167c003a207265706c795b25645d2066726f6dc3
:10168c002025733a2074696d65203d2025646d73a7
:10169c000d0a000050696e673a20444e5320666173
:1016ac00696c75726520666f722025730d0a0000d7
:1016bc00444e53204c6f6f6b75703a20444e532040
:1016cc006661696c75726520666f722025732c20bb
:1016dc006572723a2025640d0a000000444e5320b6
:1016ec004c6f6f6b75703a207265717565737420f1
:1016fc0074696d656f75742e0d0a00004c6f6f6bfd
:10170c00757020416e737765723a0d0a2d2d2d2d53
:10171c002d2d2d2d2d2d2d2d2d2d2d2d2d2d2d2ded
:10172c002d2d0d0a000000004e6f204c6f6f6b7555
:10173c007020656e74727920666f72205b25735d04
:10174c000d0a00005b25735d204120495076342042
:10175c0041646472657373203a2025642e25642ecf
:10176c0025642e25640d0a005b25735d20414141e3
:10177c004120495076362041646472657373203a77
:10178c0025730d0a000000003a20737461636b200e
:10179c00636f6d6d616e647300000000746370693b
:1017ac00700000004661696c656420746f20637280
:1017bc006561746520544350495020436f6d6d61d1
:1017cc006e64730d0a000000544350495020636f3f
:1017dc006d6d616e6473207461736b2072656769e3
:1017ec007374726174696f6e206661696c65640de7
:1017fc000a000000696e7465726e616c0000000076
:10180c00706f6f6c0000000065787465726e616caf
:10181c000000000064656c006c6f6f6b75700000ed
:10182c006e6574696e666f003a20476574206e654c
:10183c0074776f726b20696e666f726d6174696f0d
:10184c006e0000006465666e657400003a20536596
:10185c00742f4765742064656661756c7420696ebd
:10186c0074657266616365003a2044484350206396
:10187c006c69656e7420636f6d6d616e64730000ce
:10188c003a205475726e204448435020736572762a
:10189c006572206f6e2f6f66660000007a636c6c49
:1018ac00000000003a205475726e205a434c4c20b4
:1018bc006f6e2f6f66660000736574646e73000044
:1018cc003a2053657420444e5320616464726573ee
:1018dc007300000073657469700000003a20536552
:1018ec0074204950206164647265737320616e6466
:1018fc00206d61736b0000007365746777000000e6
:10190c003a2053657420476174657761792061646e
:10191c00647265737300000073657462696f7300a1
:10192c003a2053657420686f73742773204e657466
:10193c0042494f53206e616d650000007365746df4
:10194c00616300003a20536574204d41432061646b
:10195c006472657373000000696600003a2042727d
:10196c00696e6720616e20696e746572666163656d
:10197c002075702f646f776e0000000073746163c4
:10198c006b0000003a20537461636b207475726ea7
:10199c00206f6e2f6f66660068656170696e666f8a
:1019ac00000000003a20436865636b206865617035
:1019bc0020737461747573006468637073696e6608
:1019cc006f0000003a20446973706c6179204448c0
:1019dc00435020536572766572204c6561736520a7
:1019ec0044657461696c730070696e670000000077
:1019fc003a2050696e6720616e2049502061646402
:101a0c007265737300000000646e73630000000065
:101a1c003a20444e5320636c69656e7420636f6d7d
:101a2c006d616e64730000006d6163696e666f00ba
:101a3c003a20436865636b204d4143207374617495
:081a4c00697374696373000003
:020000040000fa
:101a54002de9f04f91b00f210a201ef069fb03908d
:101a640010f0010f40f02b85039b13f0020f40f0a0
:101a74004a8511b0bde8f08fd9f8187007f110034a
:101a84000793fb680d933b690e9300228df83c206d
:101a940006238df83d302b0a43ea0523adf83e308a
:101aa4000c210da81af0d6fbc3439bb2b9f822202f
:101ab40012f0040f33d02a464146484619f026f95d
:101ac4000490049b002b40f0638640461af0f0fe1d
:101ad40098f80cb04fea1b1b4fea8b030693d9f816
:101ae4001cb0bbf80220002a00f05586fe89bb8991
:101af4001e44bbf800301e445640b6b2cc4bd3f85b
:101b040000c0bcf1000f00f04986d9f828e0c94ba9
:101b14001b68059300239a46194610460fe01a469f
:101b2400294640461af096fb0490cae7b4f86a20a6
:101b340082422fd001331bb2194663452fd2059a36
:101b440052f82140002cf5d094f86e200b2af1d0e5
:101b540094f86f100129edd8216c09b18e45e9d1b3
:101b6400002ae3d0b4f86a20b242e3d1dbf80010d3
:101b7400a26d9142ded1a16bfa689142dad10121c2
:101b840084f86f10c4f840e0079a20461ef0c3fea4
:101b9400a24621e0baf1000f08bfa246cae7baf193
:101ba400000f7fd0fb68caf8383001218af86f1023
:101bb400caf840e0079a50461ef0adfeaaf86a60e3
:101bc400bbf80030aaf85830bbf80230aaf85a30f3
:101bd400daf80030caf81030d9f810209389069941
:101be4005b1a938198f80d40d8f80870d8f804600f
:101bf4009af8373013f0400f58d19af86d306ff3dc
:101c040000038af86d309af86e30002b69d0012bee
:101c140000f0b6801435069aa5eb020b1ffa8bfb75
:101c2400abf1140292b2069214f0010207921abfa9
:101c3400abf1130b1ffa8bf2069a059214f0020f04
:101c440003d0059a013292b20592daf81c50daf800
:101c540020209542c0f0e580daf81810daf8140074
:101c6400091aa5eb020ba1eb0b0b1ffa8bfbdaf89d
:101c74005020b51a059a002a00f0f080bbf1000f3d
:101c840000f0e280002dc0f2d9805d45c0f0eb8009
:101c9400059aabeb0202ab4500f3e580954240f3b5
:101ca400e280d1e06ff00e0100f005bc00238af859
:101cb40071309af8363013f0020f9ed120f0bcfa3e
:101cc4008346baf86830059320f0defa059b00fbe2
:101cd40003f0594ba3fb00300beb9010caf824001f
:101ce4008be714f0040f35d114f0100f37d114f032
:101cf400020f40d00136caf85060404616f04af947
:101d0400aaf8620050461ef04bf8012212215046f8
:101d140006f014f902238af86e30002021f028fd21
:101d2400daf87450daf87860baf8724001460020a4
:101d340021f058fe049b14ea030200f03285002dc2
:101d440000f031853346d9f82810baf93400a84791
:101d54000221b0e30021504610f076fadde7caf81c
:101d64004c7000220421504606f0e8f80021504649
:101d740010f06afad1e70021504610f065facce77a
:101d840014f0040fc9d114f0100f00f00e85daf826
:101d94004c50af422ad114f0020fbed00136caf81b
:101da4005060b8f80e30aaf86630aaf85c304046a5
:101db40016f0f0f8aaf8620050461df0f1ff012277
:101dc4001021504606f0baf803238af86e309af8c8
:101dd400373013f0400f13d19af836306ff34103c4
:101de4008af836304ff48073049396e7caf84c703f
:101df40001220421504606f0a1f8caf84c508ce7a1
:101e040020f01afa0546baf8684020f03dfa00fbc3
:101e140004f3094aa2fb032305eb9313caf8243005
:101e2400dae7a2eb050b0bf1ff3b1ffa8bfb1ee776
:101e3400c4ed0020c0ed0020d34d621005990a4680
:101e4400691800293ff725af14f0040f7ff465af3c
:101e540001221021504606f071f85ee71db1002df5
:101e6400f2db5d45f0da14f0060f11d114f0100f17
:101e74003ff453af023b072b00f2fe80dfe813f080
:101e840019002400240024002400fc002400f9018b
:101e940014f0040f08d09af8373043f002038af89c
:101ea40037304ff4006304930021504610f0ccf90e
:101eb40033e7daf84c3008939f4220d103238af8a1
:101ec4006e304ff480730493daf808c0daf81030f7
:101ed400bceb03001ed4daf84c107a1a121a002a4a
:101ee40028ddbaf86c0000f40170042801d1012a3d
:101ef40017d000221021504606f020f80de7caf84a
:101f04004c7001220421504606f018f8089bcaf8c8
:101f14004c3002e7daf80410daf80020891a084491
:101f2400d9e70131caf84c109af86d2042f0020248
:101f34008af86d20daf84c200992daf80c1008912e
:101f4400a3eb010e8b422fd2daf80400daf800106a
:101f5400411ab81a70440844002838dddaf804201d
:101f64000a92daf80010521a0b9290422cd89af87e
:101f74006c1001f0ef016ff345118af86c109af8b8
:101f840036106ff345118af83610089a0244caf8dd
:101f94000c200b990b449342c0f0ff800a9b9a4299
:101fa400c0f0558400f04fbc0999781a7044002899
:101fb4000adddaf804100a460a91daf80010521a17
:101fc4000b92904240f22084089a93422cd09af8c3
:101fd4006c1011f0100f21d011f0200f18d0099ab5
:101fe400a2eb0e01caf84c10089a934207d2daf811
:101ff4000430daf800001b1acb1acaf84c30089bdc
:10200400caf810309af8363043f080038af8363034
:102014009af86c3043f020038af86c309af86c30ec
:1020240043f010038af86c30daf80c309c4500f069
:10203400bc80b8f80e30baf866209a4238bfaaf8c5
:102044006630daf84c20b8f80e303b449b1a9bb249
:10205400baf85c1031b92bb19af8361041f040014e
:102064008af83610aaf85c309af86e30042b00f027
:10207400d780062b00f0f58014f0200f7ff44daece
:102084009af86e20a2f10803dbb2012b7ff645ae6d
:10209400062a3ff442ae069a002a3dd0002d40f3b2
:1020a400f380069b2b445b4504ddabeb050b1ffa69
:1020b4008bf3069398f80c301b0908eb83030c93fd
:1020c400daf81c10daf81830069a2a440a449342c3
:1020d40080f069815a1a0132521b00f156811ffaad
:1020e40082f80124009443460ca802462944484639
:1020f40019f0ecfb8346069aa2eb080300949bb20a
:102104000caadaf81410484619f0e0fb584480b2df
:10211400069b834200f05081059bcbb19af86e3048
:10212400033bdbb2022b84bfdaf81c30caf8203040
:102134009af8363013f0100f40f06d819af836306b
:1021440043f010038af8363013f0080f00f0698169
:10215400079b002b3ff4e1addaf850300133059ac8
:10216400324493427ff4d9adcaf85030049b43f40f
:10217400806293b204939af8373043f004038af8e8
:1021840037309af86e30023b032b00f27881dfe897
:1021940013f05d0166016f018601d31a09990b449e
:1021a400caf84c30caf810204ae39af8373013f0d2
:1021b400010f1dd113f0400f06d19af836306ff39a
:1021c40041038af8363034e720f036f80890baf83c
:1021d4006830099320f058f8099b00fb03f34ff48f
:1021e4007a72b3fbf2f3089a1344caf82430e4e792
:1021f400daf84c309f427ff41caf9af86c3013f03d
:10220400040f3ff416af9af836306ff341038af89f
:1022140036309af837306ff300038af8373008e71e
:10222400974204d014f0200f3ff435af75e59af8c7
:102234006c3013f0040ff5d01ff0feff089020f06f
:1022440023f841f2883303fb00f34ff47a72b3fbb3
:10225400f2f3089a1344caf8303005238af86e3032
:10226400e0e797427ff459ad002150460ff0ecffb0
:1022740053e5daf84c3001339f427ff44ead002130
:1022840050460ff0e1ff48e598f80c301b09c5eb08
:10229400830343440c932a4493b29b4528bf9b4633
:1022a400daf81c10daf8183001eb0b0293425cd216
:1022b4005b1a03f101081ffa88f5012400942b46e8
:1022c4000caa484619f002fb0690abeb05030094f8
:1022d4009bb20caadaf81410484619f0f7fa069bd8
:1022e400034498b2abeb0803daf8142013445845be
:1022f4007ff412afdaf850105944caf85010caf8f3
:102304001c309af86e20033ad2b2022a04d8049af6
:1023140042f4007292b20492daf85420b2f1ff3f10
:102324003ff4faaea2eb0b0bcaf854b0baf8602033
:1023340012eb0b0224d4bbf1000f3ff7edae1144b6
:10234400caf850101344caf81c30daf81820934223
:1023540006d9daf81410521ad2431344caf81c30be
:102364004ff0ff33caf85430d6e6012300935b469e
:102374000caa484619f0aafadaf81c305b44b6e70e
:102384004ff0ff33caf85430c6e6681edaf814205a
:102394009b1ac01a01230093069b0caa01444846c9
:1023a40019f094fab4e601230093069b0caa29447d
:1023b400484619f08bfaabe6daf85430b3f1ff3f34
:1023c40013d09d4217d2069a5119baf86020d0183a
:1023d400814204d88b4202d8431b9bb20693069bce
:1023e400aaf86030caf8545096e6caf85450069bce
:1023f400aaf8603090e6baf860201a4406984119a9
:1024040091427ff689ae95423ff686aeeb1a1844a8
:10241400aaf8600080e601221021504605f08efde6
:1024240096e6dbb243f008038af836301ff004ff67
:1024340004461ff029ff642303fb00f34ff47a7270
:10244400b3fbf2f31c44caf82c4081e609238af852
:102454006e3001221121504605f070fd5de4082321
:102464008af86e309af86d3013f0010f07d054e4f7
:10247400daf84c309f4208d006238af86e300122e5
:102484001021504605f05afd47e400221021504621
:1024940005f054fd002150460ff0d6fe3de4002225
:1024a4001021504605f04afd002150460ff0ccfea5
:1024b40033e46ff00d010a2248461df0f1fa0a20b8
:1024c4001ff0acfa814600283ff4ceaab9f8205098
:1024d400132deed9d9f81c8098f80c301b09042b65
:1024e4000bd9b5eb830f0bdbb9f8223013f4007f63
:1024f4003ff4c2aa6ff00e01dde76ff00d01dae7d9
:102504006ff00d01d7e7bd4b1b68002b3ff4b1aa58
:1025140000252b46dff8e892dff8e8a2dff8dc823a
:10252400dee01ff089fea36ac01a0028a8bf1026a7
:10253400ede01ff081fee36ac01a0028c0f2ed80ce
:1025440094f86e30052b00f09981102687f0010273
:102554003146204605f0f2fce7e01ff06dfe236be8
:10256400c01a0028c0f2de8001221421204605f0a2
:10257400e5fc002120460ff067fea9e094f83660e0
:1025840006f001060121204616f050fa94f8363080
:1025940043f0010384f836304ff480520021204682
:1025a4001bf086fd002e40f0938094f836306ff3d4
:1025b400000384f836300a2384f86e3088e01ff074
:1025c4003bfe636ac01a0028c0f2828094f86e1041
:1025d4004b1e082b7ad8dfe803f00542566179696f
:1025e4007979710094f87030032b28d802210026e1
:1025f40094f87030013384f87030a36c5b00a364ea
:102604002069e268831a9bb2904204d2606827680a
:10261400c01b03449bb2e06cc01ae064b4f85c00d5
:102624000344a4f85c3022610022204605f086fcb5
:10263400002e4dd0002120460ff006fe48e0042372
:1026440084f870301ff020fe4ff47a7303fb00f31c
:10265400aafb03239b091b01a3640221c7e794f887
:102664007030022b40f2c08094f8366006f001030b
:102674001e46002b18bf1421002fb9d10122204679
:1026840005f05cfcd4e794f87030042b40f2ae8083
:10269400042384f86e3011210026ede794f870309d
:1026a400042b40f2a58014210126e5e794f870304c
:1026b400042b40f29f8014210126dde794f870304a
:1026c400042b40f2998014210126d5e7002e5cd119
:1026d40001352db22b46d8f800209542bff4c9a984
:1026e400d9f8002052f82340002cf1d094f86e3031
:1026f4000b2bedd094f8363013f0c0061dbf1f46e7
:10270400df091026002713f0040f7ff40aaf94f8b2
:10271400363013f0080f7ff40caf94f86e30052bad
:102724003ff41baf002e7ff411af94f8363013f052
:10273400020f7ff444af94f8373013f0400fc7d042
:1027440094f86e30032bc3d11ff076fd636ac01a70
:102754000028bddb94f8712094f87c309a423ff451
:102764000daf02221021204605f0e8fb1ff064fda6
:102774000746b4f868601ff087fd00fb06f0aafb6b
:10278400003007eb90106062a2e73146002673e741
:102794006ff009018fe66ff00e018ce66ff00e0109
:1027a40089e6022187e6022185e614f0020f3ff450
:1027b400b4aa0136caf85060b8f80e30aaf86630e8
:1027c400aaf85c30404615f0e5fbaaf862005046d2
:1027d4001df0e6fa01221221504605f0affb022358
:1027e4008af86e30fff799ba122100e71021fee64d
:1027f4001121fce61021fae61121f8e6c4ed0020cf
:10280400c0ed0020d34d62109af86c1001f0ef0176
:102814006ff345118af86c109af836106ff345116e
:102824008af83610089a0244caf80c209342bff47e
:10283400b5abd31a09990b44caf84c30caf8102026
:102844000a9b93420cd80b9bd21acaf80c20daf8d4
:1028540010300a9a9a4203d80b9a9b1acaf810307d
:102864009af86e30032b02d0082b7ff4ddab049b67
:1028740043f0040293b20493fff7d6bb1ff0dcfcd1
:10288400236bc01a0028bff66fae10265ee600bfa9
:020000040000fa
:102894002de9f04f2ded028b9bb00f2120201df070
:1028a40047fc002800f08886824b1b68002b40f30d
:1028b4008386814c0026814fdff810829fed808a49
:1028c40008f5ee630593a3e3d4f8c4305d6894f887
:1028d400d12032b3227c012a45d0022a65d1b4f931
:1028e4003830b3f1ff3f27d00023764a4ff400710c
:1028f400b4f938001cf038fdd4f8bc200221b4f936
:10290400380012f0a0fe38b9d4f8c4301b681b6834
:1029140008f5d86128469847062120461bf0d0f9cf
:102924006fe31b681b6808f5cf61284698470121af
:1029340020461bf0c5f964e304f18002618a01209a
:1029440016f01cfa2087b0f1ff3fcdd1d4f8c43083
:102954001b681b6808f29c612846984701212046a1
:102964001bf0aef94de304f18002618a012021f0ed
:10297400f4fca087b0f1ff3f0ad00023524a4ff481
:1029840080711cf068fc032120461bf099f938e3a0
:10299400d4f8c4301b681b6808f5dd6128469847e5
:1029a400012120461bf08cf92be31b681b6808f2fd
:1029b4000c7128469847012120461bf081f920e339
:1029c400d4f8c430d3f804b03b4be31adb1003eb68
:1029d400c30203eb4203c3eb432303eb8343c3f17f
:1029e400000a86e0d4f8c4301b681b6808f224711e
:1029f40058469847042120461bf062f901e3b4f9d4
:102a04003c001ff098fffce20133c4f894302846e0
:102a140009f04cf802460b46d4e9080108f0fafe26
:102a2400c4e90801b9f1000f1adba36ae26a511c78
:102a34008b4230d0934222dc616b01f1010161636e
:102a44002bd022e0d4f8c4301b685b6808f24471d0
:102a540058469847236b013ba26a1344236383e0df
:102a6400c9f10003a3621ff0e7fbc4f88c00002344
:102a740084f8cc30042120461bf022f9d5e75b1af8
:102a8400226b13442363a36ae3620c3dadb285b3a6
:102a94004ff0340925e0934206d1d4f8c4301b68c2
:102aa4001b68059958469847a36ae26a9342ecdd8d
:102ab400eae700bf24ee002080e3002038ea00208b
:102ac40000007a444f39020039390200fc5a0000f0
:102ad4004a463946b4f93c0013f0aeff343dadb27a
:102ae4003db1332df4d82a463946b4f93c0013f0ed
:102af400a3ffb4f93c001ff04ffb05460b2840f23e
:102b040082800c223946b4f93c0013f095ff0c285e
:102b14007ff468af3b684fea136949ea03691a0214
:102b240002f47f0249ea02091b0a03f47f4349eadb
:102b34000309c4f82890d4f89430002b7ff464afd0
:102b4400b9f1000ffff65baf0123c4f89430d4f859
:102b5400c4301b685b68524608f5f56158469847cf
:102b6400a26a002a7ff46eafa36ae36206a9b4f9ed
:102b74003c001af069f9b4f93c0021f00ff920f097
:102b84008af9079dd4f8c4301b68628a0292020e47
:102b94000192c0f307420092d3f80490c0f30723d4
:102ba400c2b208f25c515846c847d4f8c4301b6816
:102bb400bdf85c2002922a0e0192c5f307420092ee
:102bc400d3f80490c5f30723eab208f5b261584676
:102bd400c8476564bdf85c30a4f864301ff02cfb72
:102be400c4f88800c4f8a800a36ac4f89c30d4f8d8
:102bf4009430c4f89830236bc4f8a030b4f93c0086
:102c04001ff099fe75e7d4f894304bb994f8cf309f
:102c1400012b40f0f681042120461bf051f8f0e12d
:102c24001ff00afbd4f8a830c31a22689342edd9e6
:102c3400d4f89420d4f898309a4213d1d4f8c430fc
:102c44001b681b6808f5f261584698471ff0f4fab0
:102c5400c4f88c00002384f8cc30042120461bf0f7
:102c64002ff8d3e7002120460bf018fccee7b4f987
:102c74003c001ff091fa38b994f8cf304bb10921d8
:102c840020461bf01df8bce1b4f93c001ff053fed4
:102c9400b7e1052120461bf013f8b2e194f8cd30da
:102ca400002b00f0b580b4f93c001ff075fa002841
:102cb40040f0b68094f8cc305a1c84f8cc200a2b0f
:102cc40000f2b3808021b4f93c0021f083fb00289a
:102cd40000f09781e36a5b421a0e42ea036219022a
:102ce40001f47f010a431b0a03f47f4313433b604f
:102cf40000257d60bd608023fb603d61d4e908014f
:102d04001cf0eeff020e42ea0062030203f47f03aa
:102d14001a43030a03f47f4313437b611ff0b4fa9d
:102d2400d4f88c10d4f88830c91ab1fbf0f31a0e19
:102d340042ea03624fea032c0cf47f0c42ea0c02d1
:102d44004fea132c0cf47f4c42ea0c02ba6100fbec
:102d5400131307ee103ab8ee477a27ee087a07ee17
:102d6400900af8ee676ac7ee267a67ee887afcee78
:102d7400e77a17ee903a1a0e42ea0362190201f456
:102d84007f010a431b0a03f47f431343fb61236b54
:102d94001a0e42ea0362190201f47f010a431b0a74
:102da40003f47f4313433b62636b1a0e42ea0362ec
:102db400190201f47f010a431b0a03f47f431343fe
:102dc4007b62e36a1a0e42ea0362190201f47f018c
:102dd4000a431b0a03f47f431343bb62fd623d6352
:102de40034223946b4f93c001bf025fe4ff04c095f
:102df4004a46294606a821f051f84a4606a9b4f9dc
:102e04003c001bf018feb4f93c000cf093fcf8e015
:102e1400022120460bf042fb012384f8cd3042e727
:102e2400b4f93c001ff087fdebe0092120461af0bd
:102e340047ffe6e094f8cf30012b24d0b4f93800f2
:102e44001ff0c2fa002800f0dc8006a9b4f93800ab
:102e540018f0d2fb04f1400c06ad0fcdace80f0026
:102e64000fcdace80f000fcdace80f0095e80300e0
:102e74008ce80300072120461af022ffb4f9380039
:102e84001ef041ffbde0092120461af019ffb8e009
:102e9400d4f8c430d3f80490b4f9380020f0c9fe53
:102ea4000546002866d0a36a002b4cd1c74be31a11
:102eb400db1003ebc30203eb4203c3eb432303eb3b
:102ec4008343d4f8c4201268d2f804a05a4208f507
:102ed400f5614846d0471ff0aff9c4f88800c4f83c
:102ee400a800a36ac4f89c30b4f9380020f02eff7f
:102ef4001ff0d1ffd4f8c4301b68628a0292020e1c
:102f04000192c0f307420092d3f804a0c0f3072350
:102f1400c2b208f25c514846d047d4f8c4301b68aa
:102f2400b4f86420029294f84720019294f8462061
:102f34000092d3f804a094f8453094f8442008f59e
:102f4400b2614846d047a36a0133a362d4f89420ff
:102f54000132c4f89420e362284608f0a7fd024633
:102f64000b46d4e9080108f055fcc4e908014ff008
:102f740034091be0b4f938001ef0c5fe20b9b4f9d9
:102f8400380020f0ccfcc8b11ff056f9c4f88c000e
:102f9400082120461af094fe33e04a463946b4f933
:102fa400380014f00df9343dadb23db1332df4d8f1
:102fb4002a463946b4f9380014f002f9a36a63b911
:102fc40094f8cf30012b1cd1082120461af078fe4a
:102fd4001ff032f9c4f88c0013e01ff02df9d4f877
:102fe400a830c31a22689342ead9002120460bf084
:102ff40055fae5e794f8cd30c3b3092120461af019
:103004005ffe0136d834724b1b68b34240f3d4825e
:1030140094f8ce30012bf4d0023b102b00f2b18295
:1030240001a252f823f000bfcd280000c5290000fa
:10303400732c0000a12c0000392e0000952e0000f6
:10304400f92f0000813000002531000043310000d9
:1030540007330000eb3300007334000061350000d7
:1030640017320000d33400007735000002212046d7
:103074000bf014fa012384f8cd30bee7d4f8c43041
:103084005d68237c012b2cd0022b2fd04f4be31aed
:10309400db1003ebc30203eb4203c3eb432303eb59
:1030a4008343c3f10009d4f8c4301b685b684a4603
:1030b40008f2d4712846984720461bf08dfb94f8fb
:1030c400d130012b1ad0d4f8c4301b685b684a464f
:1030d40008f6380128469847012120461af0f0fde9
:1030e4008fe7b4f93c001ef057f9cfe7b4f9380084
:1030f4001cf069ff4ff6ff732387c7e794f8cf30be
:10310400002be0d1d4f8c4301b685b684a4608f64b
:10311400040128469847022120461af0d1fd70e7a1
:1031240004f14401d4f8c8001cf009f80b2120462e
:103134001af0c6fd1ff080f8c4f8ac0061e7d4f8bb
:10314400c4305d6894f8cf20012a11d094f844303b
:1031540003f0f003e02b16d1237c012b54d0237c05
:10316400022b7ff44eaf0c2120461af0a9fd48e74c
:103174001b681b6808f65801284698470121204619
:103184001af09efd3de704f1780204f14401d4f8fd
:10319400c80016f0f5fee8b1d4f8c4301b6894f802
:1031a4007d20039294f87c20029294f87b20019273
:1031b40094f87a200092d3f8049094f8793094f833
:1031c400782008f6b8012846c847c5e780e3002000
:1031d40024ee00201ff030f8d4f8ac30a0eb030943
:1031e4001ff052f800eb800081457ff60aafd4f857
:1031f400c4301b681b6808f67801284698471ff0fe
:103204001bf8c4f8ac00fce6102120461af058fd67
:10321400a5e7d4f8c4305d6804f14402618a012052
:1032240021f0a0f8a087b0f1ff3f5dd00023c94a88
:103234004ff480711cf00ff8e2680521b4f93c00ea
:103244000cf0a4fe38b9d4f8c4301b681b6808f627
:10325400e4012846984702220621b4f93c000cf008
:1032640095fe38b9d4f8c4301b681b6808f60c11f5
:1032740028469847d4f8c810b4f93c001cf050fc18
:1032840006a9b4f93c0019f0dffdbdf85e30a4f8de
:103294007e30d4f8c4301b681b6808f56771284673
:1032a4009847d4f8c4301b68628a029294f8472085
:1032b400019294f846200092d3f8049094f8453093
:1032c40094f8442008f634112846c84711212046b2
:1032d4001af0f6fc1ef0b0ffc4f88800d4f884306d
:1032e4000344c4f890308ce6d4f8c4301b681b68df
:1032f40008f5dd6128469847012120461af0e0fcd4
:103304007fe6d4f8c4305d680022618a012020f091
:1033140064f86087b0f1ff3f4fd000238e4a4ff42a
:1033240000711cf021f8d4f88030002b52d104f144
:10333400440300220121b4f93a001af0e2fe4ff4ea
:103344008063a4f87e30d4f8c4301b681b6808f589
:10335400677128469847d4f8c4301b68628a029281
:1033640094f84720019294f846200092d3f80490f0
:1033740094f8453094f8442008f66c112846c84760
:103384000d2120461af09cfcd4f8b8200321b4f98e
:103394003a0012f058f938b9d4f8c4301b681b68e5
:1033a40008f6e40128469847b4f93a001ef071f98a
:1033b4001ef042ffc4f8ac0023e6d4f8c4301b6806
:1033c4001b6808f29c6128469847012120461af0a0
:1033d40077fc16e604f18003628a0121b4f93a000d
:1033e40014f040fba3e794f8cf30012b1ad0d4f8a3
:1033f400c430d3f80490b4f93a001ef0e5ffb0b13c
:10340400b4f93a001ef07ffc1ef016ffc4f88800e1
:10341400d4f884300344c4f890300e2120461af0c6
:103424004ffceee50f2120461af04afce9e51ef0b8
:1034340003ffd4f8ac50451b1ef026ff00eb8000c0
:1034440085427ff6deadb4f93a001cf0bcfd4ff6c0
:10345400ff736387d4f8c4301b681b6808f6a41193
:10346400484698470f2120461af02afcc9e5204611
:1034740007f024fe01280bd002287ff4c2ad0f21ef
:1034840020461af01dfc1ef0d7fec4f88c00b8e5e7
:1034940034225421384620f001fdb4f8b03073b121
:1034a400332b94bf1d4634255b1ba4f8b0302a4649
:1034b4003946b4f93a000ef081ff8542edd0b4f9f3
:1034c4003a001ef094ff20460df016fc99e5227d8b
:1034d4000b21b4f93c000cf059fd204607f0eefd39
:1034e40001280bd002287ff48cad122120461af05b
:1034f400e7fb1ef0a1fec4f88c0082e534225521be
:10350400384620f0cbfcb4f8b050bdb14ff0000900
:103514004ff0340a01e0002d41d0332d36d9343d2b
:10352400adb209f134091ffa89f952463946b4f9a2
:103534003c001bf080fa3428edd030e0a9462ee0a0
:10354400b4f8b030a3eb0909a4f8b09020460df00c
:10355400d3fb56e5393902004f39020020461ef0ec
:1035640017fdb4f93a001cf02efd4ff6ff73638784
:1035740047e520461ef00cfdb4f93c001df00cff9d
:103584003fe5012120461af09bfb3ae5a9441ffac6
:1035940089f92a463946b4f93c001bf04cfab4f9cf
:1035a4003c000cf0c7f80028cad100221146b4f937
:1035b4003c001cf052fc24e51bb0bdec028bbde8c2
:0435c400f08f00bfc5
:020000040000fa
:1035c800c4eb00201c00000000000000e8e7002019
:1035d8006800000000000000e4e60020040000008d
:1035e8000000000088e20020f80000000100000050
:1035f800b8d9010000000000000000000000000031
:1036080000000000000000000000000000000000b2
:1036180000000000000000000000000000000000a2
:103628000000000000000000000000000000000092
:103638000000000000000000000000000000000082
:103648000000000000000000000000000000000072
:103658000000000000000000000000000000000062
:103668000000000000000000000000000000000052
:103678000000000000000000000000000000000042
:103688000000000000000000000000000000000032
:103698000000000000000000000000000000000022
:1036a8000000000000000000000000000000000012
:1036b8000000000000000000000000000000000002
:1036c80000000000000000000000000000000000f2
:1036d80000000000000000000000000000000000e2
:1036e8000000000000000000a3eb00200100000023
:1036f80001000000ff000000a4ed0020040000000d
:1037080000000000e8e60020800000000000000043
:1037180074ef0020020000000100000054000000c7
:10372800c0e500209400000000000000e0eb00204d
:103738001800000000000000a8ed002004000000b0
:1037480000000000aced00200400000000000000b4
:10375800b0ed00200400000000000000b4ed0020df
:10376800040000000000000028ec00201400000005
:1037780000000000b8ed0020040000000000000078
:10378800bced00200400000000000000c0ed002097
:103798000400000000000000c4ed00200400000048
:1037a80000000000a2ed0020020000000000000060
:1037b8002aed00200200000000000000c8ed0020f3
:1037c8000400000000000000cced00200400000010
:1037d80000000000d0ed0020040000000000000000
:1037e800d4ed00200400000000000000d8ed002007
:1037f800040000000000000074e900204c000000f4
:10380800000000009ced0020060000000100000000
:10381800ffffffffffff0000f8eb0020180000008b
:1038280000000000dced00200400000000000000a3
:10383800e0ed00200400000000000000e4ed00209e
:10384800040000000000000084eb00201f000000be
:1038580000000000e8ed0020040000000000000067
:10386800eced0020040000000000000072ef0020d2
:103878000200000000000000f0ed0020040000003d
:103888000000000004ca0020d0070000000000006b
:10389800f4ed00200400000000000000f8ed002016
:1038a8000400000000000000fced002004000000ff
:1038b8000000000000ee00200400000000000000ee
:1038c80076ef0020020000000000000004ee002057
:1038d800040000000000000008ee002004000000c2
:1038e8000000000018ed002011000000000000009a
:1038f800a4eb00201f000000000000000cee0020d8
:10390800040000000000000010ee00200400000089
:103918000000000014ee0020040000000000000079
:1039280018ee00200400000000000000c3eb002097
:10393800010000000000000029ed00200100000047
:1039480001000000010000001cee0020040000003f
:10395800010000006400000080e30020d80000009f
:103968000000000038ea00203400000000000000d9
:1039780020ee0020040000000000000071ef00208d
:10398800010000000000000024ee002004000000f8
:103998000000000028ee00200400000000000000e5
:1039a8002cee0020040000000000000030ee002093
:1039b80004000000000000004ced00200c00000096
:1039c800000000003cec0020140000000000000093
:1039d8008aef0020010000000000000078ef0020be
:1039e80002000000000000007aef00200200000042
:1039f8000000000034ee0020040000000000000079
:103a080050ec0020140000000000000038ee0020f8
:103a180004000000000000003cee0020040000004c
:103a2800000000007cef0020020000000000000001
:103a38007eef0020020000000000000040ee0020a1
:103a4800040000000000000044ee00200400000014
:103a58000000000048ee0020040000000000000004
:103a680064ec002014000000000000004cee002070
:103a7800040000000000000080ef002002000000a9
:103a88000000000050ee00200400000000000000cc
:103a980054ee0020040000000000000098ea002016
:103aa800280000000000000058ee0020040000007c
:103ab8000000000054e60020900000000000000014
:103ac800a4d9002070020000000000005cee002075
:103ad800040000000000000060ee00200400000068
:103ae8000000000064ee0020040000000000000058
:103af80068ee002004000000000000006cee0020ca
:103b0800040000000000000070ee00200400000027
:103b18000000000074ee0020040000000000000017
:103b28002ced0020100000000000000010ec002028
:103b38001800000000000000e4ea00202000000057
:103b48000000000078ee00200400000000000000e3
:103b58008bef002001000000000000007cee002038
:103b6800040000000000000080ee002004000000b7
:103b780001000000ffffffff84ee002004000000aa
:103b88000000000088ee0020040000000000000093
:103b98008cee0020040000000000000090ee0020e1
:103ba800040000000000000082ef00200200000076
:103bb8000000000094ee0020040000000000000057
:103bc80098ee002004000000000000009cee002099
:103bd8000400000000000000a0ee00200400000027
:103be80000000000a4ee0020040000000000000017
:103bf8008cef002001000000000000003ced0020d8
:103c08001000000000000000a8ee002004000000e2
:103c18000000000084ef0020020000000000000007
:103c2800acee00200400000000000000d4d1002009
:103c3800d007000000000000b0ee002004000000e3
:103c480000000000b4ee00200400000000000000a6
:103c5800b8ee00200400000000000000bcee0020c8
:103c6800040000000000000086ef002002000000b1
:103c780000000000c0ee002004000000000000006a
:103c8800c4ee00200400000000000000c0ea00208c
:103c98002200000000000000c8ee00200400000020
:103ca800000000007ced002008000000000000007b
:103cb800ccee002004000000000000008def002082
:103cc8000100000001000000030000008eef00204a
:103cd8000100000001000000070000008fef002035
:103ce80001000000000000006cea00202c00000029
:103cf8000000000004a000200010000000000000e8
:103d080004b000200010000000000000c0e90020fe
:103d1800400000000000000084ed002008000000c2
:103d280000000000d0ee00200400000000000000a9
:103d380068e7002080000000000000008ced0020f3
:103d4800080000000000000004c00020000a000075
:103d580000000000d4ee0020040000000000000075
:103d680058ed00200c0000000000000064ed002069
:103d78000c0000000000000058e40020c80000000b
:103d880000000000d8ee0020040000000000000041
:103d980090ef0020010000000000000091ef0020db
:103da8000100000000000000dcee0020040000001c
:103db8000000000000ea00203800000000000000b9
:103dc80020e50020a00000000000000088ef00208f
:103dd800020000000100000001000000e0ee0020e9
:103de8000400000000000000e4ee002004000000d1
:103df80000000000e8ee00200400000000000000c1
:103e080080e100200801000000000000ecee002026
:103e18000400000000000000f0ee00200400000094
:103e28000000000078ec00201400000000000000f2
:103e380004eb00202000000001000000000000004a
:103e4800000000002cbe010048be01001cbe01009d
:103e58002cbe01002cbe0100010000008cec0020eb
:103e6800140000000100000001010000813e020072
:103e7800713e0200913e020052990000f4ee0020cb
:103e88000400000001000000aaaaaaaaf8ee002077
:103e980004000000000000000400002000a0000052
:103ea80000000000fcee00200400000000000000fc
:103eb80000ef0020040000000000000004ef0020d4
:103ec800040000000000000008ef002004000000cb
:103ed8000000000050e8002064000000000000001e
:103ee8000cef0020040000000000000010ef00208c
:103ef800040000000000000014ef0020040000008f
:103f08000000000018ef002004000000000000007e
:103f18001cef00200400000000000000a0ec0020be
:103f28001400000000000000b4ec002014000000a1
:103f38000000000020ef0020040000000000000046
:103f480024ef0020040000000000000028ef0020fb
:103f580004000000000000002cef00200400000016
:103f680000000000c8ec0020140000000000000061
:103f780030ef00200400000000000000dcec00200e
:103f88001400000000000000f0ec00201400000005
:103f98000000000034ef00200400000000000000d2
:103fa80038ef002004000000000000003cef002073
:103fb800040000000000000014dc002000020000e3
:103fc8000000000070ed00200c000000010000005f
:103fd800000000007cdf00000607207db4e8002018
:103fe800600000000000000040ef00200400000016
:103ff8000000000044ef0020040000000000000062
:1040080048ef0020040000000000000094ed0020ac
:104018000800000001000000ffffffffffffffff97
:1040280092ef0020010000000000000004ed0020d5
:10403800140000000000000014de00200002000050
:10404800000000004cef0020040000000000000009
:1040580050ef0020040000000000000070ef002076
:104068000100000000000000e2ea00200200000059
:104078000000000054ef00200400000000000000d1
:1040880058ef002004000000000000005cef002052
:10409800040000000000000060ef002004000000a1
:1040a8000100000014e9002014e90020600000006d
:1040b800010000000000000044eb002064eb002039
:1040c80024eb0020000000000000000000000000b9
:1040d80000000000000000000000000000000000d8
:1040e80000000000000000000000000000000000c8
:1040f80000000000000000000000000000000000b8
:1041080000000000000000000000000000000000a7
:104118000000000064ef0020040000000000000020
:1041280068ef0020040000000000000024eb0020dd
:10413800200000000000000044eb002020000000e8
:104148000000000064eb00202000000000000000d8
:1041580014e000206c010000010000004300000092
:104168000000000000000000000000000000000047
:1041780000000000000000000000000043000000f4
:104188000000000000000000000000000000000027
:1041980000000000000000000000000043000000d4
:1041a8000000000000000000000000000000000007
:1041b80000000000000000000000000043000000b4
:1041c80000000000000000000000000000000000e7
:1041d8000000000000000000000000004300000094
:1041e80000000000000000000000000000000000c7
:1041f8000000000000000000000000004300000074
:1042080000000000000000000000000000000000a6
:104218000000000000000000000000004300000053
:104228000000000000000000000000000000000086
:10423800000000000000000000000000313502000e
:10424800d927020000000000545801000143020071
:104258000043020000430200004302000043020042
:104268000043020000430200004302000043020032
:1042780000430200fffffffffffffffffffffffffd
:10428800ffff0000010041534349490000000000be
:104298000000000000000000000000000000000016
:1042a800000000000000415343494900000000009d
:1042b80000000000000000000000000000000000f6
:1042c80000000000000000000000002004000000c2
:1042d800000000006cef0020040000000000000057
:1042e80000000000000000002222222222222222b6
:020000040000fa
:1042f8002de9f04f2ded048badf5457d0023ad93f1
:10430800b14b1b68002b00f07c85b04bb3f9002043
:104318000092dd784ff00009cb46cdf80490cdf837
:1043280010904c46dff8bca20af5197305939fed6f
:10433800a29b9feda38b00e00125a54e3378ab42ed
:104348001ad0082d57d8dfe805f011242a30363c5a
:10435800424a50000125f0e73546eee73546ece7de
:104368003546eae70125e8e70125e6e70af5a271ff
:10437800002018f08ff935706b1e072bded8dfe8a8
:1043880013f03f0053006100e400d300c0047e0432
:1043980093040af5b071002018f07cf9ebe70af5f0
:1043a800c271002018f076f9e5e70af5d27100200d
:1043b80018f070f9dfe70af5e471002018f06af9df
:1043c800d9e70af5f271002018f064f9d3e71ff075
:1043d80071ff0af50171002018f05cf9cbe70af5c6
:1043e8000871002018f056f9c5e70af51171002088
:1043f80018f050f9bfe70599002018f04bf9bae713
:1044080000981df0c7fe0446002800f0fc84b0f5b3
:10441800967f5ad36d4b9d78012d5ad04ff4f07288
:10442800002135a81ff038fdaea9009818f00afd44
:10443800ddf8009348461cf0acf800284dd0654bd9
:10444800c3f80090b4f5f07f28bf4ff4f07435a995
:10445800329133910b193493a2b2009d284612f081
:10446800e9fa28461ef065fa222228a932a81cf08b
:10447800a9ff00283ff460af574f3d4628ae0fce46
:104488000fc50fce0fc533682b8007f11c01534ba6
:10449800186818f073fa28b3fa683192042231a91f
:1044a8000c301ef011ff30b30023019304934a4be4
:1044b8001d78012d7ff44eaf5e78012e7ff43daf5d
:1044c8009b78062b1bd0354637e700981ef031fa4b
:1044d80033e700981ef02dfa2fe700981ef029fa0e
:1044e80001252ae73c4bdb68b3fa83f35b090493a5
:1044f80000230193dbe7012301930493d7e7ca2242
:10450800002132a81cf05eff00283ff425af0422ea
:10451800c2a932a81cf056ff00283ff41fafc29b67
:104528002f4a93427ff41caf0023ad93ada94846b0
:1045380019f078ff0346002800f0af83ad9bc3eb6a
:10454800c303214a126802eb830b0df20d320df200
:104558000e3132a81df032fe00283ff403af9df85b
:104568000e33352b0fd004259df80d23002132a8da
:104578001cf028ff00283ff4e0ae00238df80d332f
:10458800124bdd70d9e60df20f3132a81ef098fffc
:1045980000283ff4e9ae9df80f53012d45d0032db7
:1045a80060d0072d00f02882042d00f02582082d08
:1045b80000f03f820425d7e7000000000000e03f3c
:1045c800000000000000ec3fc8ee00203ced002099
:1045d8008cef0020ccee0020c0ea00207ced00200b
:1045e800638253638cd100009df84c30322b16d077
:1045f8009df87020002132a81cf0e4fec8b1349a5e
:10460800339b9a4215d01caa13a932a81df0d6fdd7
:104618000028e9d19df84c30ff2be9d08de6042223
:1046280031a932a81cf0cefee2e7349a339b9a42b5
:10463800e9d131a819f092fc08b9319a00e00022ba
:10464800654b9a600023654a5946654812f03efb5f
:1046580000287ff472ae604b9b68002b3ff46dae70
:10466800072581e75f4b0b935b4bb3f900604ff471
:10467800967130461ff0acfeb0f5967f06d2222226
:10468800002157481ff008fc01256de7002211465c
:1046980030461bf0e0fbddf81080514f07f11c039a
:1046a80007934e4d13e0029928681ef0ffff4ff064
:1046b80000080ce09df83030322b50d09df83c209b
:1046c800002132a81cf07efe002800f08f80349a6a
:1046d800339b9a4200f08a800ca932a81ef0f0fea3
:1046e8000028ccd09df83030ff2b7fd00fa932a8fe
:1046f8001ef0e6fe02900028c1d0019b002bd9d005
:104708009df830303d2bd9d19df83c30072bd5d1c1
:104718000aa932a81ef0d4fe0028b0d006221ca98f
:1047280032a81cf04ffe0028a9d09df83c30073b6a
:104738008df83c301ca9286818f020f90290002850
:1047480000f04681fb681393042213a90c301ef075
:10475800bbfd0028a7d102981ef01cfdb7e79df805
:104768003c30042baad104221ca932a81cf02afe32
:10477800002884d09df83c30043b8df83c300799e4
:10478800286818f0fbf8069090b104221ca90c3098
:104798001ef09afd28b906981ef0fcfcddf808808a
:1047a80095e7069928681ef081ffddf804808ee7fa
:1047b800d9f804301c9a5340d9f80820134213d171
:1047c8008023079a1ca9b9f8580018f085fd00281d
:1047d8007ff455af7be700bf3ced00207ced002067
:1047e800c0ea002063825363ddf8048030461ef07f
:1047f8005afe0d900c9000f596700e9000231593bc
:1048080016931793189319931a93adf86c300223e3
:104818008df84c30914b5a788df84d209a788df858
:104828004e20da788df84f205a6814925b89adf8db
:104838005630b8f1000f40f0ce800022874bd9687f
:10484800169117920025189519951c3393e80300c3
:104858001a90adf86c1022220ca913a81cf0aaf823
:104868008df828500ca928461ff09efa9df828308c
:104878000133dbb28df82830c92bf3d904220ca9f7
:104888000ba81cf097f835238df8703001238df8ac
:104898007130b8f1000f14bf052306238df872306c
:1048a8003a238df8913004278df892706c4b5d682f
:1048b800284607f0e9f8cde9020153ec192b05f079
:1048c80001fc1bf00bfa020e42ea0062030203f439
:1048d8007f031a43030a03f47f431343cdf893304d
:1048e8003b238df897308df8987053ec182bdde941
:1048f800020105f0e7fb1bf0f1f9020e42ea006243
:10490800030203f47f031a43030a03f47f431343a8
:10491800cdf8993001238df873308df87470d9f87b
:104928000830cdf8753036238df879308df87a70e7
:10493800d9f80430cdf87b3003228df87f208df82c
:104948008070cdf8813006228df885208df886702c
:10495800cdf8873033238df88b308df88c702b0e83
:1049680043ea05632a0202f47f021a432b0a03f47e
:104978007f431343cdf88d302d220ca91ca81cf0c1
:1049880019f80ca9ff201ff00ffa0d9a0e9b9a42f6
:1049980008d200250ca928461ff006fa0d9a0e9b8e
:1049a8009a42f7d3019b0bb3d9f804300f930faa9f
:1049b800012130461af0d1fe0d990c9bc91a00222c
:1049c80089b230461bf047fa30460af0b1fe56e687
:1049d8004ff000087be62349214b186817f0cefffb
:1049e80008b1c2682ae70022904627e74a46012113
:1049f800304618f058ffd7e71849cb6831931c3177
:104a0800174b186817f0baff054658b1144b1e68c3
:104a1800042231a90c301ef057fc18b9294630463b
:104a28001ef044fe222200210c481ff035fa012511
:104a38009ae50d4b0a930d4bb3f900504ff496715c
:104a480028461ff0c5fcb0f5967f11d2222200211e
:104a580002481ff021fa012586e500bfc0ea0020c0
:104a68007ced0020dcea0020638253633ced0020eb
:104a78000022114628461bf0eef9349a339b9a42dd
:104a880040f0ba80049b002be0d028461ef00bfdb6
:104a98000d900c9000f596700e90002615961796be
:104aa800189619961a96adf86c6002238df84c305a
:104ab800b44b5a788df84d209a788df84e20da78d4
:104ac8008df84f205a6814925a89adf85620da6842
:104ad8001692d9f8042018921c3393e803001a9010
:104ae800adf86c1022220ca913a81bf063ff8df8f7
:104af80027600ca930461ff057f99df8273001337d
:104b0800dbb28df82730c92bf3d904220ca90aa8e7
:104b18001bf050ff35238df8703001238df871306c
:104b280005228df872208df8733004238df87430c7
:104b3800d9f80820cdf8752036228df879208df81f
:104b48007a30d9f80420cdf87b2003218df87f1026
:104b58008df88030cdf8812006218df885108df8ec
:104b68008630cdf887201b220ca91ca81bf022ff39
:104b78000ca9ff201ff018f90e9a0d9b9a4208d92c
:104b880000260ca930461ff00ff90d9a0e9b9a4289
:104b9800f7d3d9f804300f930faa012128461af049
:104ba800dcfd0d990c9bc91a002289b228461bf01e
:104bb80052f928460af0bcfd48e7d9f804300b9aa8
:104bc8005340d9f8082013427ff440af80236e4a3f
:104bd8000ba9dbf8180018f07ffb37e79df84c208d
:104be800002132a81cf0eefb00283ff44baf349aaa
:104bf800339b9a423ff446af0fa932a81ef060fcdf
:104c080000283ff423af9df83c30ff2b3ff43aaf28
:104c180013a932a81ef054fc00283ff417af9df8e2
:104c28003c303d2bdad19df84c30072bd6d10df115
:104c3800270132a81ef044fc00283ff407af0622e3
:104c48001ca932a81cf0befb00283ff4ffae9df85b
:104c58004c30073b8df84c301ca94c4b186817f0aa
:104c68008dfe484bdb680b930028a6d004220ba9c5
:104c78000c301ef029fb00283ff407afe6e6444b52
:104c88001a68444b00211970434b1a60434a9168d3
:104c9800434b196001239370d37018460df5457d79
:104ca800bdec048bbde8f08f0023ad93ada9384b64
:104cb800186819f0b7fb0346a8b1ad9bc3ebc30353
:104cc800384a126802eb830b374b304a59462d4855
:104cd80011f0fcff58b9314b9b686bb107252f4b7e
:104ce800dd70fff72abb2d4a0121d170d5e70125d8
:104cf8002a4bdd70fff721bb0125284bdd70fff73c
:104d08001cbb0023ad93224b1d68ada9284619f0a2
:104d180089fb0346c0b1ad9bc3ebc303214a1268ac
:104d280002eb830b214b0b931c4bb3f900804ff420
:104d3800967140461ff04cfbb0f5967f08d20125ce
:104d4800164bdd70fff7f9ba144a0121d170a4e7b8
:104d58000022114640461bf07ef82222002113a8ab
:104d68001ff09af8074b1b7f002b4ed1054901f124
:104d78001d03223113f8012b002a46d19942f9d19b
:104d8800dde700bfc0ea0020dcea00207ced00205f
:104d9800ccee00208def0020acee00203ced002092
:104da800c4ee0020c8ee002044ed00206382536367
:104db800704b9b684bb11c9340236f4a1ca9b5f8f4
:104dc800580018f089fa38b3b9e70bf108026a49b4
:104dd8006a48006815f03efab0f1ff3fafd09bf883
:104de80008308df870309bf809308df871309bf8d9
:104df8000a308df872309bf80b3003448df873300d
:104e0800dae7002349e7002347e75b495b4b18686b
:104e180017f0b4fd0028cbd0594e06f11c073946cf
:104e2800564b186817f0aafd029040461ef03bfb4f
:104e38000d900c9000f596700e9002238df84c3072
:104e480073788df84d30b3788df84e30f3788df84f
:104e58004f30736814930023adf854307289adf85d
:104e680056201693029ad26817926a681892199374
:104e780097e803001a90adf86c1022220ca913a829
:104e88001bf098fdca2700260ca930461ef08cff9f
:104e9800013f17f0ff07f7d104220ca90ba81bf05c
:104ea80089fd35238df8703001238df87130022289
:104eb8008df872208df8733004238df87430aa6849
:104ec800cdf8752036228df879208df87a306a6809
:104ed800cdf87b2003218df87f108df88030cdf838
:104ee800812006218df885108df88630cdf8872031
:104ef80033228df88b208df88c30204b5b681a0e8e
:104f080042ea0362190201f47f010a431b0a03f40f
:104f18007f431343cdf88d3021220ca91ca81bf028
:104f280049fd0ca9ff201ef03fff0e9a0d9b9a42e7
:104f380008d900260ca930461ef036ff0d9a0e9ba4
:104f48009a42f7d32a460121404618f0acfc6b6818
:104f58000f930faa012140461af0fffb0d990c9bf5
:104f6800c91a002289b240461af075ff40460af075
:104f7800dffbe4e63ced0020dcea00207ced0020cd
:044f8800c0ea00205b
:020000040000fa
:044f8c00002070474a
:020000040000fa
:104f90002de9f04f55ec104b99b0476a08918346c4
:104fa0000d921493229ecde9044547b910201ef0be
:104fb00067ffc0e90177cbf824000760c760dbf822
:104fc0002430196859b15a684a60012393408b60b4
:104fd00058461cf074fcdbf8243000221a60002dc7
:104fe000bfbf0123336025f000430593a4bf002316
:104ff0003360059cb24ba3431ad1149a42f20f734b
:105000001360049bc4f31304234300f04f85239bd8
:1050100053b9ac4b23e0ac4b01930833239a136094
:10502000019819b0bde8f08fa64b01930333f5e763
:105030009ded047b0022002351ec170b8ded0e7bc0
:1050400010f040f9074660b1149a01231360239bc6
:10505000002b00f028859d4b239a1360013b0193a0
:10506000dee716aa17a99ded0e0b584614f057fb64
:10507000c4f30a568046002e7fd00f9b1597c3f3ca
:105080001303dde90e4543f07f5545f44015a6f2c4
:10509000ff3600228e4b2046294606f0bbfb82a33a
:1050a000d3e9002305f012f881a3d3e9002306f029
:1050b000b3fb044630460d4606f0fafc7ea3d3e966
:1050c000002305f003f802460b462046294606f069
:1050d000a3fb04460d4619f071fa00228246002314
:1050e0002046294610f0f8f848b1504606f0e0fc9a
:1050f00022462b4610f0e6f808b90af1ff3abaf159
:10510000160f59d8734b03ebca03d3e90023dde92b
:105110000e0110f0e1f8002850d00af1ff3a002308
:105120001193169b9e1b731e079345bfc6f1010387
:105130000693002300234cbf07930693baf1000f98
:105140003edb079bcdf840a053440793002309930f
:10515000089b092b00f28e80052bc4bf043b0893eb
:10516000089ba3f10203ccbf00240124032b00f20f
:105170008c80dfe803f02f716f7ddde916631e443c
:1051800006f23240202811ddc0f14000049b84402b
:1051900006f2124023fa00f0204306f079fc0123c6
:1051a0000446a1f1f875013e159372e7049bc0f126
:1051b000200003fa00f0f0e70123b1e71190b0e717
:1051c000069ba3eb0a030693caf10003099300238d
:1051d0001093bde700230c930d9b002b59dc01239a
:1051e000029399460d93dbf8245000226a60042252
:1051f00002f11400984269684fd9584617f0c6fc6e
:10520000dbf8243028601b680193b9f10e0f00f21f
:10521000e680002c00f0e380baf1000f78dd2d4a23
:105220000af00f0302ebc30393ed007b4fea2a144d
:10523000e2068ded0a7b69d5274bdde90e01d3e946
:10524000082305f06df8cde9040104f00f040326ee
:10525000214d50e00123bee700230c930d9b5344e6
:1052600003f1010902934b46012bb8bf0123bae7b2
:105270000123f2e70023012408930c94013b002250
:10528000029399460d921223ade701230c93023b42
:10529000f5e70d9b02939946a5e70131696052003d
:1052a000a6e700bfaff3008061436f63a787d23fdb
:1052b000b3c8608b288ac63ffb799f501344d33f05
:1052c0000000f07ff93e0200f03e0200fe3e0200c8
:1052d0000000f83f1878010030230200e30708d5ea
:1052e000dde90a01d5e9002304f0f0fecde90a0169
:1052f000013664100835002cf0d1dde90a23dde920
:10530000040105f00df8cde904011ae002269fe73b
:1053100000f09f80caf100049f4ba04d04f00f02e3
:1053200003ebc203d3e90023dde90e0104f0cefe56
:10533000cde90401241100230226002c7ed1002b8c
:10534000e1d1119b002b00f08680dde904450022ad
:10535000934b204629460ff0bfff00287bd0b9f1c0
:10536000000f78d0029b002b35dd0af1ff330a9342
:10537000204600228b4b294604f0a8fecde904010b
:10538000029c0136304606f093fbdde9042304f06d
:105390009dfe0022844b06f03ffa0646a1f15077ad
:1053a000002c5cd10022814bdde9040106f032fac9
:1053b00032463b46cde904010ff0acff002840f037
:1053c0008982324607f10043dde904010ff084ffd2
:1053d000002840f07d82dde90e34cde90434179bce
:1053e000002bc0f24f81baf10e0f00f34b816a4bd4
:1053f00003ebca0393ed007b0d9b002b8ded027b2d
:1054000080f2d880b9f1000f00f3d48040f05f82c1
:105410000022664b51ec170b04f058fedde9042323
:105420000ff06eff4c464e46002840f03882019d3a
:10543000312305f8013b0af1010a34e2e70705d5fb
:10544000d5e9002304f042fe01360123641008353b
:1054500073e7022675e7cdf828a04c4692e74e4b3d
:1054600003ebc40353e90201019b1c440c9b002b7a
:1054700046d002460b4600204d4904f051ff32460b
:105480003b4606f0c7f9019d06460f46dde90401db
:1054900019f094f8129006f00bfb02460b46dde97a
:1054a000040106f0b7f9129b303305f8013b324690
:1054b0003b46cde904010ff00fff002860d1dde984
:1054c00004230020364906f0a5f932463b460ff08a
:1054d00003ff002840f0b480a5423ff47caf0022d7
:1054e000304b3046394604f0f1fd002206460f46a7
:1054f0002c4bdde9040104f0e9fdcde90401c5e729
:1055000032463b4604f0e2fdcde91201019e2546fc
:10551000dde9040119f052f8074606f0c9fa303700
:1055200002460b46dde9040106f074f906f8017b3a
:10553000a642cde904014ff0000226d11c4bdde963
:10554000120106f069f902460b46dde904010ff08d
:10555000e1fe002874d1dde912230020144906f091
:1055600059f902460b46dde904010ff0b5fe0028ab
:105570003ff431af15f8013c302b05f1ff3202d07a
:10558000ddf828a04ae01546f4e7064b04f09efd3e
:10559000cde90401bce700bf187801003023020008
:1055a0000000f03f0000244000001c4000001440b8
:1055b0000000e03fdde90467019ddde9022330469c
:1055c000394604f0adfe18f0f9ff044606f070fa13
:1055d000dde9022304f07afd02460b4630463946e7
:1055e00004f1300606f016f905f8016b019eae1bba
:1055f000b14502460b4638d106f00ef9dde902232b
:1056000006460f460ff086fec0b9dde9022330469c
:1056100039460ff057fe08b1e1070fd4414658460e
:105620001cf04df90023149a2b700af1010313604a
:10563000239b002b3ff4f4ac1d60f1e4cdf828a0cf
:1056400015f8012c392a05f1ff3308d1019a9a4245
:1056500009d10a9a019901320a9230220a701a7805
:1056600001321a708ce71d46eae700229b4b04f0da
:105670002dfd0022002306460f460ff023fe0028d2
:105680009bd0cbe70c9a002a00f0cb80089a012a25
:1056900000f3ae80159a002a00f0a68003f233438f
:1056a000099c069d069a1a440692079a01211a44fb
:1056b000584607921ef019fb0646002d0cdd079b8d
:1056c000002b09ddab42069aa8bf2b46d21a0692e0
:1056d000079aed1ad31a0793099bf3b10c9b002b81
:1056e00000f0a380002c10dd31462246584614f00d
:1056f0004ff942460146064658460ef069fb4146c0
:10570000074658461cf0dbf8b846099b1a1b04d024
:105710004146584614f03cf98046012158461ef097
:10572000e4fa109b002b044640f381801a460146a0
:10573000584614f02df9089b012b04467add00270a
:10574000236904eb830318691af0ecfac0f1200016
:10575000079b184410f01f0000f08880c0f1200360
:10576000042b40f38180c0f11c00069b0344069388
:10577000079b034405440793069b002b05dd414628
:105780001a46584613f0a0fc8046079b002b05dd07
:1057900021461a46584613f097fc0446119b002bed
:1057a00066d0214640461bf0c9fb002860da002382
:1057b00041460a22584615f0acfd0c9b0af1ff3a0f
:1057c0008046002b00f07981002331460a2258469a
:1057d00015f09ffd029b002b064600f38980089b75
:1057e000022b40f385804be0169bc3f1360357e74d
:1057f000099b09f1ff34a342bfbf099b0994e21a38
:10580000109bbbbf9b1810931c1b0024b9f1000f09
:10581000b5bf069b069da3eb09054b46b8bf002309
:1058200040e7099c069d0c9e47e7099a70e7089b94
:10583000012b15dc049b9bb9059bc3f313028ab9aa
:10584000274f1f4037b1069b01330693079b013357
:1058500007930127109b002b7ff472af012077e79d
:105860000027f7e7049ff5e786d018461c307ce751
:10587000b9f1000f36dc089b022b33ddcdf8089020
:10588000029b63b921460522584615f042fd0146a8
:10589000044640461bf052fb00283ff7c8ad0d9b65
:1058a000019d6fea030a0027214658461cf007f8bd
:1058b000002e3ff4b3ae2fb1b74203d0394658465d
:1058c0001bf0fdff314658461bf0f9ffa6e6002409
:1058d0002646e4e7ddf828a02646a8e50000244097
:1058e0000000f07f0c9bcdf80890002b00f0ec80be
:1058f000002d05dd31462a46584613f0e5fb0646e5
:10590000002f56d07168584617f040f932690232bc
:105910000546920006f10c010c301df0e7fc012257
:105920002946584613f0d0fb019b03f10109dde93c
:10593000012313440993049b03f0010337460793a3
:10594000064609f1ff332146404602930ef0d8fa8d
:10595000034630330490394640460a931bf0eefa72
:10596000324606902146584611f0f0fec2680a9b66
:10597000054602bb014640461bf0e0fa0a9b024680
:10598000294658460c920a931bf099ff089b0c9ae3
:1059900043ea0201079b0b434d460a9b0dd1392b6d
:1059a00027d0069a002a01dd049b3133029a137036
:1059b0007ae73046b8e70122e2e70699002904dbde
:1059c00008980143079801431ed1002aeedd4146a5
:1059d00001225846069313f077fb214680461bf0c0
:1059e000adfa0028069b02dce0d1da07ded5392bc0
:1059f000dad1029a3923137015f8013c392b05f1dd
:105a0000ff3246d00133d2e7002a03dd392bf0d034
:105a10000133cbe7099a09f8013c914520d0414672
:105a200000230a22584615f074fcb74280464ff016
:105a300000034ff00a023946584606d115f069fcba
:105a40000746064609f101097be715f062fc0023d1
:105a500007460a223146584615f05bfcf1e700275d
:105a6000414601225846029313f02efb2146804600
:105a70001bf064fa0028bfdc02d1029bdb07bbd419
:105a800015f8013c302b05f1ff327ff40daf1546c0
